{
  "contractName": "Branches",
  "abi": [
    {
      "inputs": [],
      "name": "branch",
      "outputs": [
        {
          "internalType": "uint256",
          "name": "",
          "type": "uint256"
        }
      ],
      "stateMutability": "view",
      "type": "function"
    },
    {
      "inputs": [],
      "name": "top",
      "outputs": [
        {
          "internalType": "bool",
          "name": "",
          "type": "bool"
        }
      ],
      "stateMutability": "view",
      "type": "function"
    },
    {
      "inputs": [
        {
          "internalType": "uint256",
          "name": "_branch",
          "type": "uint256"
        }
      ],
      "name": "climb",
      "outputs": [],
      "stateMutability": "nonpayable",
      "type": "function"
    },
    {
      "inputs": [],
      "name": "see",
      "outputs": [
        {
          "internalType": "string",
          "name": "",
          "type": "string"
        }
      ],
      "stateMutability": "view",
      "type": "function"
    }
  ],
  "bytecode": "0x608060405234801561001057600080fd5b5061050b806100206000396000f3fe608060405234801561001057600080fd5b506004361061004c5760003560e01c80634b72d0d4146100515780639ae5a2be1461006f578063fe6dcdba1461008d578063ffd931f3146100ab575b600080fd5b6100596100c7565b60405161006691906102af565b60405180910390f35b6100776100cd565b604051610084919061035a565b60405180910390f35b61009561015e565b6040516100a29190610397565b60405180910390f35b6100c560048036038101906100c091906103e3565b61016f565b005b60015481565b60606001151560008054906101000a900460ff16151514610123576040517f08c379a000000000000000000000000000000000000000000000000000000000815260040161011a9061045c565b60405180910390fd5b6040518060400160405280601b81526020017f636c65617220766973696f6e206f662074686520746172676574210000000000815250905090565b60008054906101000a900460ff1681565b60003390508073ffffffffffffffffffffffffffffffffffffffff1663c8b4cc3b836040518263ffffffff1660e01b81526004016101ad91906102af565b6020604051808303816000875af11580156101cc573d6000803e3d6000fd5b505050506040513d601f19601f820116820180604052508101906101f091906104a8565b61029257816001819055508073ffffffffffffffffffffffffffffffffffffffff1663c8b4cc3b6001546040518263ffffffff1660e01b815260040161023691906102af565b6020604051808303816000875af1158015610255573d6000803e3d6000fd5b505050506040513d601f19601f8201168201806040525081019061027991906104a8565b6000806101000a81548160ff0219169083151502179055505b5050565b6000819050919050565b6102a981610296565b82525050565b60006020820190506102c460008301846102a0565b92915050565b600081519050919050565b600082825260208201905092915050565b60005b838110156103045780820151818401526020810190506102e9565b60008484015250505050565b6000601f19601f8301169050919050565b600061032c826102ca565b61033681856102d5565b93506103468185602086016102e6565b61034f81610310565b840191505092915050565b600060208201905081810360008301526103748184610321565b905092915050565b60008115159050919050565b6103918161037c565b82525050565b60006020820190506103ac6000830184610388565b92915050565b600080fd5b6103c081610296565b81146103cb57600080fd5b50565b6000813590506103dd816103b7565b92915050565b6000602082840312156103f9576103f86103b2565b5b6000610407848285016103ce565b91505092915050565b7f596f7520686176656e277420726561636865642074686520746f702079657400600082015250565b6000610446601f836102d5565b915061045182610410565b602082019050919050565b6000602082019050818103600083015261047581610439565b9050919050565b6104858161037c565b811461049057600080fd5b50565b6000815190506104a28161047c565b92915050565b6000602082840312156104be576104bd6103b2565b5b60006104cc84828501610493565b9150509291505056fea2646970667358221220a04d18c4470bf6d65559cbab6c45e1da71817e7440de20a425912458a7bef86a64736f6c63430008100033",
  "immutableReferences": {},
  "source": "// SPDX-License-Identifier: MIT\r\npragma solidity >=0.6.0 <0.9.0; \r\ninterface Tree {\r\n  function isLastBranch(uint) external returns (bool);\r\n}\r\n \r\n \r\ncontract Branches {\r\n \r\n/*\r\n                            ( )\r\n                            # #### ####\r\n                        ### \\/#|### |/####\r\n                       ##\\/#/ \\||/##/_/##/_#\r\n                     ###  \\/###|/ \\/ # ###\r\n                   ##_\\_#\\_\\## | #/###_/_####\r\n                  ## #### # \\ #| /  #### ##/##\r\n                    __#_--###`  |{,###---###-~\r\n                             \\ }{\r\n                              }}{\r\n                              }}{\r\n                              {{}\r\n                        , -=-~{ .-^- _                                       (!)/                                                                                    \r\n                              `}\r\n                               {                                                                  \r\n  */\r\n \r\n  bool public top;\r\n  uint public branch;\r\n \r\n  function climb(uint _branch) public {\r\n    Tree tree = Tree(msg.sender);\r\n \r\n    if (!tree.isLastBranch(_branch)) {\r\n      branch = _branch;\r\n      top = tree.isLastBranch(branch);\r\n    }\r\n  }\r\n \r\n  function see() view public returns(string memory){\r\n    require(top == true,\"You haven't reached the top yet\");\r\n    return \"clear vision of the target!\";\r\n  }\r\n \r\n}\r\n",
  "sourcePath": "D:\\Trend\\CloudSec\\src\\truffle\\contracts\\Branches.sol",
  "compiler": {
    "name": "solc",
    "version": "0.8.16+commit.07a7930e.Emscripten.clang"
  },
  "schemaVersion": "3.4.9",
  "updatedAt": "2022-09-02T08:48:39.073Z",
  "devdoc": {
    "kind": "dev",
    "methods": {},
    "version": 1
  },
  "userdoc": {
    "kind": "user",
    "methods": {},
    "version": 1
  }
}