{
  "contractName": "Defense",
  "abi": [
    {
      "inputs": [],
      "stateMutability": "payable",
      "type": "constructor"
    },
    {
      "inputs": [],
      "name": "owner",
      "outputs": [
        {
          "internalType": "address",
          "name": "",
          "type": "address"
        }
      ],
      "stateMutability": "view",
      "type": "function"
    },
    {
      "inputs": [
        {
          "internalType": "bytes8",
          "name": "_defenseKey",
          "type": "bytes8"
        }
      ],
      "name": "penetrate",
      "outputs": [
        {
          "internalType": "bool",
          "name": "",
          "type": "bool"
        }
      ],
      "stateMutability": "nonpayable",
      "type": "function"
    },
    {
      "inputs": [],
      "name": "balanceOf",
      "outputs": [
        {
          "internalType": "uint256",
          "name": "",
          "type": "uint256"
        }
      ],
      "stateMutability": "view",
      "type": "function"
    },
    {
      "inputs": [],
      "name": "withdraw",
      "outputs": [],
      "stateMutability": "nonpayable",
      "type": "function"
    }
  ],
  "bytecode": "0x6080604052336000806101000a81548173ffffffffffffffffffffffffffffffffffffffff021916908373ffffffffffffffffffffffffffffffffffffffff1602179055506105c3806100536000396000f3fe608060405234801561001057600080fd5b506004361061004c5760003560e01c806303512618146100515780633ccfd60b14610081578063722713f71461008b5780638da5cb5b146100a9575b600080fd5b61006b6004803603810190610066919061033b565b6100c7565b6040516100789190610383565b60405180910390f35b6100896101bb565b005b6100936102b2565b6040516100a091906103b7565b60405180910390f35b6100b16102ba565b6040516100be9190610413565b60405180910390f35b60003273ffffffffffffffffffffffffffffffffffffffff163373ffffffffffffffffffffffffffffffffffffffff160361010157600080fd5b6000333b90506000811461011457600080fd5b82600160006101239190610471565b67ffffffffffffffff168160c01c3360405160200161014291906104f5565b6040516020818303038152906040528051906020012060c01c1867ffffffffffffffff161461017057600080fd5b326000806101000a81548173ffffffffffffffffffffffffffffffffffffffff021916908373ffffffffffffffffffffffffffffffffffffffff160217905550600192505050919050565b60008054906101000a900473ffffffffffffffffffffffffffffffffffffffff1673ffffffffffffffffffffffffffffffffffffffff163373ffffffffffffffffffffffffffffffffffffffff1614610249576040517f08c379a00000000000000000000000000000000000000000000000000000000081526004016102409061056d565b60405180910390fd5b60008054906101000a900473ffffffffffffffffffffffffffffffffffffffff1673ffffffffffffffffffffffffffffffffffffffff166108fc479081150290604051600060405180830381858888f193505050501580156102af573d6000803e3d6000fd5b50565b600047905090565b60008054906101000a900473ffffffffffffffffffffffffffffffffffffffff1681565b600080fd5b60007fffffffffffffffff00000000000000000000000000000000000000000000000082169050919050565b610318816102e3565b811461032357600080fd5b50565b6000813590506103358161030f565b92915050565b600060208284031215610351576103506102de565b5b600061035f84828501610326565b91505092915050565b60008115159050919050565b61037d81610368565b82525050565b60006020820190506103986000830184610374565b92915050565b6000819050919050565b6103b18161039e565b82525050565b60006020820190506103cc60008301846103a8565b92915050565b600073ffffffffffffffffffffffffffffffffffffffff82169050919050565b60006103fd826103d2565b9050919050565b61040d816103f2565b82525050565b60006020820190506104286000830184610404565b92915050565b600067ffffffffffffffff82169050919050565b7f4e487b7100000000000000000000000000000000000000000000000000000000600052601160045260246000fd5b600061047c8261042e565b91506104878361042e565b9250828203905067ffffffffffffffff8111156104a7576104a6610442565b5b92915050565b60008160601b9050919050565b60006104c5826104ad565b9050919050565b60006104d7826104ba565b9050919050565b6104ef6104ea826103f2565b6104cc565b82525050565b600061050182846104de565b60148201915081905092915050565b600082825260208201905092915050565b7f596f7520617265206e6f7420746865206f776e65720000000000000000000000600082015250565b6000610557601583610510565b915061056282610521565b602082019050919050565b600060208201905081810360008301526105868161054a565b905091905056fea264697066735822122087665757b257998513ddec773035fe6918a3c01b2c2095e3e969b6cc15e80cc664736f6c63430008100033",
  "immutableReferences": {},
  "source": "// SPDX-License-Identifier: MIT\r\npragma solidity >=0.4.22 <0.9.0;\r\n \r\ncontract Defense {\r\n   \r\n    address public owner;\r\n \r\n    constructor()  payable{\r\n        owner = payable(msg.sender);\r\n    }\r\n \r\n    modifier defenseOne() {\r\n        require(msg.sender != tx.origin);\r\n        _;\r\n    }\r\n \r\n    modifier defenseTwo() {\r\n        uint z;\r\n        assembly { z := extcodesize(caller()) } \r\n        require(z == 0); \r\n        _;\r\n    }\r\n \r\n    modifier defenseThree(bytes8 _defenceKey) {\r\n        require(uint64(bytes8(keccak256(abi.encodePacked(msg.sender)))) ^ uint64(_defenceKey) == uint64(0) - 1); \r\n        _;\r\n    }\r\n \r\n    function penetrate(bytes8 _defenseKey) public defenseOne defenseTwo defenseThree(_defenseKey) returns (bool) {\r\n        owner = tx.origin;\r\n        return true;\r\n    }\r\n \r\n    modifier onlyOwner {\r\n            require(\r\n                msg.sender == owner,\r\n                \"You are not the owner\"\r\n                );\r\n            _;\r\n    }\r\n \r\n    function balanceOf() view public returns(uint) {\r\n        return address(this).balance;\r\n    }\r\n \r\n    function withdraw() public  onlyOwner {\r\n        payable(owner).transfer(address(this).balance);\r\n    }\r\n}\r\n",
  "sourcePath": "C:\\Users\\teu-intern\\Documents\\CloudSec\\src\\truffle\\contracts\\Defense.sol",
  "compiler": {
    "name": "solc",
    "version": "0.8.16+commit.07a7930e.Emscripten.clang"
  },
  "schemaVersion": "3.4.9",
  "updatedAt": "2022-08-30T08:16:34.067Z",
  "devdoc": {
    "kind": "dev",
    "methods": {},
    "version": 1
  },
  "userdoc": {
    "kind": "user",
    "methods": {},
    "version": 1
  }
}