{
  "contractName": "Dino",
  "abi": [
    {
      "inputs": [],
      "name": "balanceOf",
      "outputs": [
        {
          "internalType": "uint256",
          "name": "",
          "type": "uint256"
        }
      ],
      "stateMutability": "view",
      "type": "function"
    }
  ],
  "bytecode": "0x608060405234801561001057600080fd5b5060b58061001f6000396000f3fe6080604052348015600f57600080fd5b506004361060285760003560e01c8063722713f714602d575b600080fd5b60336047565b604051603e91906066565b60405180910390f35b600047905090565b6000819050919050565b606081604f565b82525050565b6000602082019050607960008301846059565b9291505056fea2646970667358221220b2ec36859aca04ab16e698a034d264b360f50a1a4d43df8c2d0e02270fa9d7db64736f6c63430008100033",
  "immutableReferences": {},
  "source": "// SPDX-License-Identifier: MIT\r\npragma solidity >=0.6.0 <0.9.0; \r\ncontract Dino {\r\n/*\r\n                                                                I NEED MONEY PLEASE!\r\n                                                     ___._\r\n                                                   .'  <0>'-.._\r\n                                                  /  /.--.____\")\r\n                                                 |   \\   __.-'~\r\n                                                 |  :  -'/\r\n                                                /:.  :.-'\r\n__________                                     | : '. |\r\n'--.____  '--------.______       _.----.-----./      :/\r\n        '--.__            `'----/       '-.      __ :/\r\n              '-.___           :           \\   .'  )/\r\n                    '---._           _.-'   ] /  _/\r\n                         '-._      _/     _/ / _/\r\n                             \\_ .-'____.-'__< |  \\___\r\n                               <_______.\\    \\_\\_---.7\r\n                              |   /'=r_.-'     _\\\\ =/\r\n                          .--'   /            ._/'>\r\n                        .'   _.-'\r\n                       / .--'\r\n                      /,/\r\n                      |/`)\r\n                      'c=,\r\n*/\r\n \r\n \r\n \r\n    function balanceOf() view public returns(uint) {\r\n        return address(this).balance;\r\n    }\r\n}\r\n",
  "sourcePath": "D:\\Trend\\cloudsec\\src\\truffle\\contracts\\Dino.sol",
  "compiler": {
    "name": "solc",
    "version": "0.8.16+commit.07a7930e.Emscripten.clang"
  },
  "schemaVersion": "3.4.9",
  "updatedAt": "2022-08-25T09:31:10.899Z",
  "devdoc": {
    "kind": "dev",
    "methods": {},
    "version": 1
  },
  "userdoc": {
    "kind": "user",
    "methods": {},
    "version": 1
  }
}