{
  "contractName": "Door",
  "abi": [
    {
      "inputs": [
        {
          "internalType": "bytes32[3]",
          "name": "_data",
          "type": "bytes32[3]"
        }
      ],
      "stateMutability": "payable",
      "type": "constructor",
      "payable": true
    },
    {
      "inputs": [],
      "name": "Face",
      "outputs": [
        {
          "internalType": "uint256",
          "name": "",
          "type": "uint256"
        }
      ],
      "stateMutability": "view",
      "type": "function",
      "constant": true
    },
    {
      "inputs": [],
      "name": "locked",
      "outputs": [
        {
          "internalType": "bool",
          "name": "",
          "type": "bool"
        }
      ],
      "stateMutability": "view",
      "type": "function",
      "constant": true
    },
    {
      "inputs": [],
      "name": "owner",
      "outputs": [
        {
          "internalType": "address",
          "name": "",
          "type": "address"
        }
      ],
      "stateMutability": "view",
      "type": "function",
      "constant": true
    },
    {
      "inputs": [
        {
          "internalType": "bytes16",
          "name": "_key",
          "type": "bytes16"
        }
      ],
      "name": "unlock",
      "outputs": [],
      "stateMutability": "nonpayable",
      "type": "function"
    },
    {
      "inputs": [],
      "name": "balanceOf",
      "outputs": [
        {
          "internalType": "uint256",
          "name": "",
          "type": "uint256"
        }
      ],
      "stateMutability": "view",
      "type": "function",
      "constant": true
    },
    {
      "inputs": [],
      "name": "getMoney",
      "outputs": [],
      "stateMutability": "nonpayable",
      "type": "function"
    }
  ],
  "bytecode": "0x608060405260016000806101000a81548160ff02191690831515021790555042600155600f600260006101000a81548160ff021916908360ff16021790555060dc600260016101000a81548160ff021916908360ff160217905550426002806101000a81548161ffff021916908361ffff160217905550604051620009373803806200093783398181016040528101906200009b919062000382565b806003906003620000ae92919062000171565b5033600660006101000a81548173ffffffffffffffffffffffffffffffffffffffff021916908373ffffffffffffffffffffffffffffffffffffffff1602179055503460076000600660009054906101000a900473ffffffffffffffffffffffffffffffffffffffff1673ffffffffffffffffffffffffffffffffffffffff1673ffffffffffffffffffffffffffffffffffffffff1681526020019081526020016000206000828254620001639190620003ed565b925050819055505062000428565b8260038101928215620001a3579160200282015b82811115620001a257825182559160200191906001019062000185565b5b509050620001b29190620001b6565b5090565b5b80821115620001d1576000816000905550600101620001b7565b5090565b6000604051905090565b600080fd5b600080fd5b6000601f19601f8301169050919050565b7f4e487b7100000000000000000000000000000000000000000000000000000000600052604160045260246000fd5b6200023482620001e9565b810181811067ffffffffffffffff82111715620002565762000255620001fa565b5b80604052505050565b60006200026b620001d5565b905062000279828262000229565b919050565b600067ffffffffffffffff8211156200029c576200029b620001fa565b5b602082029050919050565b600080fd5b6000819050919050565b620002c181620002ac565b8114620002cd57600080fd5b50565b600081519050620002e181620002b6565b92915050565b6000620002fe620002f8846200027e565b6200025f565b905080602084028301858111156200031b576200031a620002a7565b5b835b81811015620003485780620003338882620002d0565b8452602084019350506020810190506200031d565b5050509392505050565b600082601f8301126200036a5762000369620001e4565b5b600362000379848285620002e7565b91505092915050565b6000606082840312156200039b576200039a620001df565b5b6000620003ab8482850162000352565b91505092915050565b6000819050919050565b7f4e487b7100000000000000000000000000000000000000000000000000000000600052601160045260246000fd5b6000620003fa82620003b4565b91506200040783620003b4565b9250828201905080821115620004225762000421620003be565b5b92915050565b6104ff80620004386000396000f3fe608060405234801561001057600080fd5b50600436106100625760003560e01c8063722713f7146100675780638da5cb5b1461008557806398e1b410146100a3578063b2f14982146100ad578063cf309012146100cb578063e1afb08c146100e9575b600080fd5b61006f610105565b60405161007c91906102e6565b60405180910390f35b61008d61016e565b60405161009a9190610342565b60405180910390f35b6100ab610194565b005b6100b5610251565b6040516100c291906102e6565b60405180910390f35b6100d3610257565b6040516100e09190610378565b60405180910390f35b61010360048036038101906100fe91906103f0565b610268565b005b600060076000600660009054906101000a900473ffffffffffffffffffffffffffffffffffffffff1673ffffffffffffffffffffffffffffffffffffffff1673ffffffffffffffffffffffffffffffffffffffff16815260200190815260200160002054905090565b600660009054906101000a900473ffffffffffffffffffffffffffffffffffffffff1681565b6000151560008054906101000a900460ff161515146101e8576040517f08c379a00000000000000000000000000000000000000000000000000000000081526004016101df9061047a565b60405180910390fd5b600060076000600660009054906101000a900473ffffffffffffffffffffffffffffffffffffffff1673ffffffffffffffffffffffffffffffffffffffff1673ffffffffffffffffffffffffffffffffffffffff16815260200190815260200160002081905550565b60015481565b60008054906101000a900460ff1681565b600360016003811061027d5761027c61049a565b5b01546fffffffffffffffffffffffffffffffff1916816fffffffffffffffffffffffffffffffff1916146102b057600080fd5b60008060006101000a81548160ff02191690831515021790555050565b6000819050919050565b6102e0816102cd565b82525050565b60006020820190506102fb60008301846102d7565b92915050565b600073ffffffffffffffffffffffffffffffffffffffff82169050919050565b600061032c82610301565b9050919050565b61033c81610321565b82525050565b60006020820190506103576000830184610333565b92915050565b60008115159050919050565b6103728161035d565b82525050565b600060208201905061038d6000830184610369565b92915050565b600080fd5b60007fffffffffffffffffffffffffffffffff0000000000000000000000000000000082169050919050565b6103cd81610398565b81146103d857600080fd5b50565b6000813590506103ea816103c4565b92915050565b60006020828403121561040657610405610393565b5b6000610414848285016103db565b91505092915050565b600082825260208201905092915050565b7f54686520646f6f72206973206c6f636b65642100000000000000000000000000600082015250565b600061046460138361041d565b915061046f8261042e565b602082019050919050565b6000602082019050818103600083015261049381610457565b9050919050565b7f4e487b7100000000000000000000000000000000000000000000000000000000600052603260045260246000fdfea26469706673582212208c79b8e7827c57a75415751837faf384dcffa6d0797988184260f3281d85fb4164736f6c63430008100033",
  "immutableReferences": {},
  "source": "// SPDX-License-Identifier: MIT\r\npragma solidity >=0.6.0 <0.9.0;\r\n \r\ncontract Door {\r\n \r\n  bool public locked = true;\r\n  uint256 public Face = block.timestamp;\r\n  uint8 private key1 = 15;\r\n  uint8 private key2 = 220;\r\n  uint16 private when = uint16(block.timestamp);\r\n  bytes32[3] private password;\r\n  address public owner;\r\n  mapping(address => uint256) balances;\r\n \r\n  constructor(bytes32[3] memory _data)  payable {\r\n    password = _data;  \r\n    owner = msg.sender;\r\n    balances[owner] += msg.value;\r\n  }\r\n \r\n \r\n  function unlock(bytes16 _key) public {\r\n    require(_key == bytes16(password[1]));\r\n    locked = false;\r\n  }\r\n \r\n  function balanceOf() view public returns(uint256) {\r\n        return balances[owner];\r\n    }\r\n \r\n  function getMoney() public {\r\n        require(locked == false, \"The door is locked!\");\r\n        balances[owner] = 0;\r\n \r\n  }\r\n \r\n}\r\n",
  "sourcePath": "D:\\Trend\\CloudSec\\src\\truffle\\contracts\\Door.sol",
  "compiler": {
    "name": "solc",
    "version": "0.8.16+commit.07a7930e.Emscripten.clang"
  },
  "schemaVersion": "3.4.9",
  "updatedAt": "2022-08-30T18:53:31.234Z",
  "networkType": "ethereum",
  "devdoc": {
    "kind": "dev",
    "methods": {},
    "version": 1
  },
  "userdoc": {
    "kind": "user",
    "methods": {},
    "version": 1
  }
}