{
  "contractName": "EtherWalletFactory",
  "abi": [
    {
      "inputs": [],
      "stateMutability": "payable",
      "type": "constructor",
      "payable": true
    },
    {
      "anonymous": false,
      "inputs": [
        {
          "indexed": true,
          "internalType": "address",
          "name": "previousOwner",
          "type": "address"
        },
        {
          "indexed": true,
          "internalType": "address",
          "name": "newOwner",
          "type": "address"
        }
      ],
      "name": "OwnershipTransferred",
      "type": "event"
    },
    {
      "inputs": [],
      "name": "owner",
      "outputs": [
        {
          "internalType": "address",
          "name": "",
          "type": "address"
        }
      ],
      "stateMutability": "view",
      "type": "function",
      "constant": true
    },
    {
      "inputs": [],
      "name": "renounceOwnership",
      "outputs": [],
      "stateMutability": "nonpayable",
      "type": "function"
    },
    {
      "inputs": [
        {
          "internalType": "address",
          "name": "newOwner",
          "type": "address"
        }
      ],
      "name": "transferOwnership",
      "outputs": [],
      "stateMutability": "nonpayable",
      "type": "function"
    },
    {
      "inputs": [
        {
          "internalType": "address",
          "name": "_player",
          "type": "address"
        }
      ],
      "name": "createInstance",
      "outputs": [
        {
          "internalType": "address",
          "name": "",
          "type": "address"
        }
      ],
      "stateMutability": "payable",
      "type": "function",
      "payable": true
    },
    {
      "inputs": [
        {
          "internalType": "address payable",
          "name": "_instance",
          "type": "address"
        }
      ],
      "name": "sendMoneyToContractInstance",
      "outputs": [],
      "stateMutability": "payable",
      "type": "function",
      "payable": true
    },
    {
      "inputs": [],
      "name": "balanceOf",
      "outputs": [
        {
          "internalType": "uint256",
          "name": "",
          "type": "uint256"
        }
      ],
      "stateMutability": "view",
      "type": "function",
      "constant": true
    },
    {
      "inputs": [
        {
          "internalType": "address payable",
          "name": "_instance",
          "type": "address"
        },
        {
          "internalType": "address",
          "name": "_player",
          "type": "address"
        }
      ],
      "name": "validateInstance",
      "outputs": [
        {
          "internalType": "bool",
          "name": "",
          "type": "bool"
        }
      ],
      "stateMutability": "view",
      "type": "function",
      "constant": true
    }
  ],
  "bytecode": "0x608060405261002061001561002560201b60201c565b61002d60201b60201c565b6100f1565b600033905090565b60008060009054906101000a900473ffffffffffffffffffffffffffffffffffffffff169050816000806101000a81548173ffffffffffffffffffffffffffffffffffffffff021916908373ffffffffffffffffffffffffffffffffffffffff1602179055508173ffffffffffffffffffffffffffffffffffffffff168173ffffffffffffffffffffffffffffffffffffffff167f8be0079c531659141344cd1fd0a4f28419497f9722a3daafe3b4186f6b6457e060405160405180910390a35050565b6114ba806101006000396000f3fe6080604052600436106100705760003560e01c80637726f7761161004e5780637726f776146100d35780638da5cb5b14610103578063d38def5b1461012e578063f2fde38b1461016b57610070565b806312e9d51914610075578063715018a614610091578063722713f7146100a8575b600080fd5b61008f600480360381019061008a91906105d8565b610194565b005b34801561009d57600080fd5b506100a6610247565b005b3480156100b457600080fd5b506100bd61025b565b6040516100ca919061061e565b60405180910390f35b6100ed60048036038101906100e89190610677565b610263565b6040516100fa91906106b3565b60405180910390f35b34801561010f57600080fd5b506101186102a3565b60405161012591906106b3565b60405180910390f35b34801561013a57600080fd5b50610155600480360381019061015091906106ce565b6102cc565b6040516101629190610729565b60405180910390f35b34801561017757600080fd5b50610192600480360381019061018d9190610677565b61039b565b005b6000808273ffffffffffffffffffffffffffffffffffffffff16476040516101bb90610775565b60006040518083038185875af1925050503d80600081146101f8576040519150601f19603f3d011682016040523d82523d6000602084013e6101fd565b606091505b509150915081610242576040517f08c379a0000000000000000000000000000000000000000000000000000000008152600401610239906107e7565b60405180910390fd5b505050565b61024f61041e565b610259600061049c565b565b600047905090565b60008060405161027290610568565b604051809103906000f08015801561028e573d6000803e3d6000fd5b50905061029a81610194565b80915050919050565b60008060009054906101000a900473ffffffffffffffffffffffffffffffffffffffff16905090565b6000808390508273ffffffffffffffffffffffffffffffffffffffff168173ffffffffffffffffffffffffffffffffffffffff16638da5cb5b6040518163ffffffff1660e01b8152600401602060405180830381865afa158015610334573d6000803e3d6000fd5b505050506040513d601f19601f82011682018060405250810190610358919061081c565b73ffffffffffffffffffffffffffffffffffffffff16148015610392575060008173ffffffffffffffffffffffffffffffffffffffff1631145b91505092915050565b6103a361041e565b600073ffffffffffffffffffffffffffffffffffffffff168173ffffffffffffffffffffffffffffffffffffffff1603610412576040517f08c379a0000000000000000000000000000000000000000000000000000000008152600401610409906108bb565b60405180910390fd5b61041b8161049c565b50565b610426610560565b73ffffffffffffffffffffffffffffffffffffffff166104446102a3565b73ffffffffffffffffffffffffffffffffffffffff161461049a576040517f08c379a000000000000000000000000000000000000000000000000000000000815260040161049190610927565b60405180910390fd5b565b60008060009054906101000a900473ffffffffffffffffffffffffffffffffffffffff169050816000806101000a81548173ffffffffffffffffffffffffffffffffffffffff021916908373ffffffffffffffffffffffffffffffffffffffff1602179055508173ffffffffffffffffffffffffffffffffffffffff168173ffffffffffffffffffffffffffffffffffffffff167f8be0079c531659141344cd1fd0a4f28419497f9722a3daafe3b4186f6b6457e060405160405180910390a35050565b600033905090565b610b3d8061094883390190565b600080fd5b600073ffffffffffffffffffffffffffffffffffffffff82169050919050565b60006105a58261057a565b9050919050565b6105b58161059a565b81146105c057600080fd5b50565b6000813590506105d2816105ac565b92915050565b6000602082840312156105ee576105ed610575565b5b60006105fc848285016105c3565b91505092915050565b6000819050919050565b61061881610605565b82525050565b6000602082019050610633600083018461060f565b92915050565b60006106448261057a565b9050919050565b61065481610639565b811461065f57600080fd5b50565b6000813590506106718161064b565b92915050565b60006020828403121561068d5761068c610575565b5b600061069b84828501610662565b91505092915050565b6106ad81610639565b82525050565b60006020820190506106c860008301846106a4565b92915050565b600080604083850312156106e5576106e4610575565b5b60006106f3858286016105c3565b925050602061070485828601610662565b9150509250929050565b60008115159050919050565b6107238161070e565b82525050565b600060208201905061073e600083018461071a565b92915050565b600081905092915050565b50565b600061075f600083610744565b915061076a8261074f565b600082019050919050565b600061078082610752565b9150819050919050565b600082825260208201905092915050565b7f4661696c656420746f2073656e64204574686572000000000000000000000000600082015250565b60006107d160148361078a565b91506107dc8261079b565b602082019050919050565b60006020820190508181036000830152610800816107c4565b9050919050565b6000815190506108168161064b565b92915050565b60006020828403121561083257610831610575565b5b600061084084828501610807565b91505092915050565b7f4f776e61626c653a206e6577206f776e657220697320746865207a65726f206160008201527f6464726573730000000000000000000000000000000000000000000000000000602082015250565b60006108a560268361078a565b91506108b082610849565b604082019050919050565b600060208201905081810360008301526108d481610898565b9050919050565b7f4f776e61626c653a2063616c6c6572206973206e6f7420746865206f776e6572600082015250565b600061091160208361078a565b915061091c826108db565b602082019050919050565b6000602082019050818103600083015261094081610904565b905091905056fe6080604052336000806101000a81548173ffffffffffffffffffffffffffffffffffffffff021916908373ffffffffffffffffffffffffffffffffffffffff1602179055506807439fa2099e580000600160003373ffffffffffffffffffffffffffffffffffffffff1673ffffffffffffffffffffffffffffffffffffffff16815260200190815260200160002081905550610a9d806100a06000396000f3fe6080604052600436106100745760003560e01c8063d0679d341161004e578063d0679d34146101bf578063d0e30db0146101e8578063d624722d146101f2578063e8b5e51f1461021d57610112565b80633ccfd60b14610152578063722713f7146101695780638da5cb5b1461019457610112565b36610112576002600160003373ffffffffffffffffffffffffffffffffffffffff1673ffffffffffffffffffffffffffffffffffffffff168152602001908152602001600020541180156100c85750600034115b6100d157600080fd5b336000806101000a81548173ffffffffffffffffffffffffffffffffffffffff021916908373ffffffffffffffffffffffffffffffffffffffff1602179055005b7ff7f75251dee7d7fc22deac3247729ebe7c86541f35930bf10c2a4207479a3b6c333460003660405161014894939291906107f4565b60405180910390a1005b34801561015e57600080fd5b50610167610227565b005b34801561017557600080fd5b5061017e61031e565b60405161018b9190610847565b60405180910390f35b3480156101a057600080fd5b506101a9610326565b6040516101b69190610862565b60405180910390f35b3480156101cb57600080fd5b506101e660048036038101906101e191906108ec565b61034a565b005b6101f06104b6565b005b3480156101fe57600080fd5b50610207610546565b6040516102149190610847565b60405180910390f35b61022561058d565b005b60008054906101000a900473ffffffffffffffffffffffffffffffffffffffff1673ffffffffffffffffffffffffffffffffffffffff163373ffffffffffffffffffffffffffffffffffffffff16146102b5576040517f08c379a00000000000000000000000000000000000000000000000000000000081526004016102ac90610978565b60405180910390fd5b60008054906101000a900473ffffffffffffffffffffffffffffffffffffffff1673ffffffffffffffffffffffffffffffffffffffff166108fc479081150290604051600060405180830381858888f1935050505015801561031b573d6000803e3d6000fd5b50565b600047905090565b60008054906101000a900473ffffffffffffffffffffffffffffffffffffffff1681565b60008054906101000a900473ffffffffffffffffffffffffffffffffffffffff1673ffffffffffffffffffffffffffffffffffffffff163373ffffffffffffffffffffffffffffffffffffffff16146103d8576040517f08c379a00000000000000000000000000000000000000000000000000000000081526004016103cf90610978565b60405180910390fd5b60008054906101000a900473ffffffffffffffffffffffffffffffffffffffff1673ffffffffffffffffffffffffffffffffffffffff163373ffffffffffffffffffffffffffffffffffffffff1603610477578173ffffffffffffffffffffffffffffffffffffffff166108fc829081150290604051600060405180830381858888f19350505050158015610471573d6000803e3d6000fd5b506104b2565b6040517f08c379a00000000000000000000000000000000000000000000000000000000081526004016104a9906109e4565b60405180910390fd5b5050565b60008054906101000a900473ffffffffffffffffffffffffffffffffffffffff1673ffffffffffffffffffffffffffffffffffffffff163373ffffffffffffffffffffffffffffffffffffffff1614610544576040517f08c379a000000000000000000000000000000000000000000000000000000000815260040161053b90610978565b60405180910390fd5b565b6000600160003373ffffffffffffffffffffffffffffffffffffffff1673ffffffffffffffffffffffffffffffffffffffff16815260200190815260200160002054905090565b66038d7ea4c6800034106105a057600080fd5b34600160003373ffffffffffffffffffffffffffffffffffffffff1673ffffffffffffffffffffffffffffffffffffffff16815260200190815260200160002060008282546105ef9190610a33565b92505081905550600160008060009054906101000a900473ffffffffffffffffffffffffffffffffffffffff1673ffffffffffffffffffffffffffffffffffffffff1673ffffffffffffffffffffffffffffffffffffffff16815260200190815260200160002054600160003373ffffffffffffffffffffffffffffffffffffffff1673ffffffffffffffffffffffffffffffffffffffff16815260200190815260200160002054106106dd57336000806101000a81548173ffffffffffffffffffffffffffffffffffffffff021916908373ffffffffffffffffffffffffffffffffffffffff1602179055505b565b600082825260208201905092915050565b7f46616c6c6261636b000000000000000000000000000000000000000000000000600082015250565b60006107266008836106df565b9150610731826106f0565b602082019050919050565b600073ffffffffffffffffffffffffffffffffffffffff82169050919050565b60006107678261073c565b9050919050565b6107778161075c565b82525050565b6000819050919050565b6107908161077d565b82525050565b600082825260208201905092915050565b82818337600083830152505050565b6000601f19601f8301169050919050565b60006107d38385610796565b93506107e08385846107a7565b6107e9836107b6565b840190509392505050565b6000608082019050818103600083015261080d81610719565b905061081c602083018761076e565b6108296040830186610787565b818103606083015261083c8184866107c7565b905095945050505050565b600060208201905061085c6000830184610787565b92915050565b6000602082019050610877600083018461076e565b92915050565b600080fd5b600061088d8261073c565b9050919050565b61089d81610882565b81146108a857600080fd5b50565b6000813590506108ba81610894565b92915050565b6108c98161077d565b81146108d457600080fd5b50565b6000813590506108e6816108c0565b92915050565b600080604083850312156109035761090261087d565b5b6000610911858286016108ab565b9250506020610922858286016108d7565b9150509250929050565b7f596f7520617265206e6f7420746865206f776e65720000000000000000000000600082015250565b60006109626015836106df565b915061096d8261092c565b602082019050919050565b6000602082019050818103600083015261099181610955565b9050919050565b7f596f7520617265206e6f7420616c6c6f77656420746f2073656e640000000000600082015250565b60006109ce601b836106df565b91506109d982610998565b602082019050919050565b600060208201905081810360008301526109fd816109c1565b9050919050565b7f4e487b7100000000000000000000000000000000000000000000000000000000600052601160045260246000fd5b6000610a3e8261077d565b9150610a498361077d565b9250828201905080821115610a6157610a60610a04565b5b9291505056fea2646970667358221220316b9e8309a57efb2c8745b21e05c36ca842b4fb57c93e23d298bdf8956df6dd64736f6c63430008100033a264697066735822122076ef62425602343cb69e8f263bec61b8705f62818b9c6e15ccbc955a347eec0464736f6c63430008100033",
  "immutableReferences": {},
  "source": "// SPDX-License-Identifier: MIT\r\n \r\npragma solidity ^0.8.0;\r\n \r\nimport \"./Level.sol\";\r\nimport \"./EtherWallet.sol\";\r\n \r\ncontract EtherWalletFactory is Level {\r\n  constructor () payable{}\r\n \r\n  function createInstance(address _player) override public payable returns (address) {\r\n    _player;\r\n    EtherWallet instance = new EtherWallet();\r\n    sendMoneyToContractInstance(payable(address(instance)));\r\n    return address(instance);\r\n  }\r\n \r\n  function sendMoneyToContractInstance(address payable _instance) public payable {\r\n      (bool sent, bytes memory data) = _instance.call{value: address(this).balance}(\"\");\r\n      data;\r\n      require(sent, \"Failed to send Ether\");\r\n  }\r\n \r\n   function balanceOf() view public returns(uint) {\r\n        return address(this).balance;\r\n    }\r\n \r\n  function validateInstance(address payable _instance, address _player) override view public returns (bool) {\r\n    EtherWallet instance = EtherWallet(_instance);\r\n    // String nice = \"ewerjweklrjwelkr\";\r\n    return instance.owner() == _player && address(instance).balance == 0;\r\n\r\n    // if(instance.owner() == _player && address(instance).balance == 0){\r\n    //   return nice;\r\n    // }\r\n  \r\n  \r\n  }\r\n}\r\n",
  "sourcePath": "D:\\aaron\\Documents\\GitRepo\\CloudSec\\src\\truffle\\contracts\\EtherWalletFactory.sol",
  "compiler": {
    "name": "solc",
    "version": "0.8.16+commit.07a7930e.Emscripten.clang"
  },
  "schemaVersion": "3.4.10",
  "updatedAt": "2022-09-18T06:54:54.863Z",
  "networkType": "ethereum",
  "devdoc": {
    "kind": "dev",
    "methods": {
      "owner()": {
        "details": "Returns the address of the current owner."
      },
      "renounceOwnership()": {
        "details": "Leaves the contract without owner. It will not be possible to call `onlyOwner` functions anymore. Can only be called by the current owner. NOTE: Renouncing ownership will leave the contract without an owner, thereby removing any functionality that is only available to the owner."
      },
      "transferOwnership(address)": {
        "details": "Transfers ownership of the contract to a new account (`newOwner`). Can only be called by the current owner."
      }
    },
    "version": 1
  },
  "userdoc": {
    "kind": "user",
    "methods": {},
    "version": 1
  }
}