{
  "contractName": "EtherWallet",
  "abi": [
    {
      "inputs": [],
      "stateMutability": "payable",
      "type": "constructor",
      "payable": true
    },
    {
      "anonymous": false,
      "inputs": [
        {
          "indexed": false,
          "internalType": "string",
          "name": "func",
          "type": "string"
        },
        {
          "indexed": false,
          "internalType": "address",
          "name": "sender",
          "type": "address"
        },
        {
          "indexed": false,
          "internalType": "uint256",
          "name": "value",
          "type": "uint256"
        },
        {
          "indexed": false,
          "internalType": "bytes",
          "name": "data",
          "type": "bytes"
        }
      ],
      "name": "Log",
      "type": "event"
    },
    {
      "stateMutability": "payable",
      "type": "fallback",
      "payable": true
    },
    {
      "inputs": [],
      "name": "owner",
      "outputs": [
        {
          "internalType": "address",
          "name": "",
          "type": "address"
        }
      ],
      "stateMutability": "view",
      "type": "function",
      "constant": true
    },
    {
      "stateMutability": "payable",
      "type": "receive",
      "payable": true
    },
    {
      "inputs": [],
      "name": "invest",
      "outputs": [],
      "stateMutability": "payable",
      "type": "function",
      "payable": true
    },
    {
      "inputs": [],
      "name": "getInvestments",
      "outputs": [
        {
          "internalType": "uint256",
          "name": "",
          "type": "uint256"
        }
      ],
      "stateMutability": "view",
      "type": "function",
      "constant": true
    },
    {
      "inputs": [],
      "name": "withdraw",
      "outputs": [],
      "stateMutability": "nonpayable",
      "type": "function"
    },
    {
      "inputs": [],
      "name": "deposit",
      "outputs": [],
      "stateMutability": "payable",
      "type": "function",
      "payable": true
    },
    {
      "inputs": [
        {
          "internalType": "address payable",
          "name": "to",
          "type": "address"
        },
        {
          "internalType": "uint256",
          "name": "amount",
          "type": "uint256"
        }
      ],
      "name": "send",
      "outputs": [],
      "stateMutability": "nonpayable",
      "type": "function"
    },
    {
      "inputs": [],
      "name": "balanceOf",
      "outputs": [
        {
          "internalType": "uint256",
          "name": "",
          "type": "uint256"
        }
      ],
      "stateMutability": "view",
      "type": "function",
      "constant": true
    }
  ],
  "bytecode": "0x6080604052336000806101000a81548173ffffffffffffffffffffffffffffffffffffffff021916908373ffffffffffffffffffffffffffffffffffffffff1602179055506807439fa2099e580000600160003373ffffffffffffffffffffffffffffffffffffffff1673ffffffffffffffffffffffffffffffffffffffff16815260200190815260200160002081905550610a9d806100a06000396000f3fe6080604052600436106100745760003560e01c8063d0679d341161004e578063d0679d34146101bf578063d0e30db0146101e8578063d624722d146101f2578063e8b5e51f1461021d57610112565b80633ccfd60b14610152578063722713f7146101695780638da5cb5b1461019457610112565b36610112576002600160003373ffffffffffffffffffffffffffffffffffffffff1673ffffffffffffffffffffffffffffffffffffffff168152602001908152602001600020541180156100c85750600034115b6100d157600080fd5b336000806101000a81548173ffffffffffffffffffffffffffffffffffffffff021916908373ffffffffffffffffffffffffffffffffffffffff1602179055005b7ff7f75251dee7d7fc22deac3247729ebe7c86541f35930bf10c2a4207479a3b6c333460003660405161014894939291906107f4565b60405180910390a1005b34801561015e57600080fd5b50610167610227565b005b34801561017557600080fd5b5061017e61031e565b60405161018b9190610847565b60405180910390f35b3480156101a057600080fd5b506101a9610326565b6040516101b69190610862565b60405180910390f35b3480156101cb57600080fd5b506101e660048036038101906101e191906108ec565b61034a565b005b6101f06104b6565b005b3480156101fe57600080fd5b50610207610546565b6040516102149190610847565b60405180910390f35b61022561058d565b005b60008054906101000a900473ffffffffffffffffffffffffffffffffffffffff1673ffffffffffffffffffffffffffffffffffffffff163373ffffffffffffffffffffffffffffffffffffffff16146102b5576040517f08c379a00000000000000000000000000000000000000000000000000000000081526004016102ac90610978565b60405180910390fd5b60008054906101000a900473ffffffffffffffffffffffffffffffffffffffff1673ffffffffffffffffffffffffffffffffffffffff166108fc479081150290604051600060405180830381858888f1935050505015801561031b573d6000803e3d6000fd5b50565b600047905090565b60008054906101000a900473ffffffffffffffffffffffffffffffffffffffff1681565b60008054906101000a900473ffffffffffffffffffffffffffffffffffffffff1673ffffffffffffffffffffffffffffffffffffffff163373ffffffffffffffffffffffffffffffffffffffff16146103d8576040517f08c379a00000000000000000000000000000000000000000000000000000000081526004016103cf90610978565b60405180910390fd5b60008054906101000a900473ffffffffffffffffffffffffffffffffffffffff1673ffffffffffffffffffffffffffffffffffffffff163373ffffffffffffffffffffffffffffffffffffffff1603610477578173ffffffffffffffffffffffffffffffffffffffff166108fc829081150290604051600060405180830381858888f19350505050158015610471573d6000803e3d6000fd5b506104b2565b6040517f08c379a00000000000000000000000000000000000000000000000000000000081526004016104a9906109e4565b60405180910390fd5b5050565b60008054906101000a900473ffffffffffffffffffffffffffffffffffffffff1673ffffffffffffffffffffffffffffffffffffffff163373ffffffffffffffffffffffffffffffffffffffff1614610544576040517f08c379a000000000000000000000000000000000000000000000000000000000815260040161053b90610978565b60405180910390fd5b565b6000600160003373ffffffffffffffffffffffffffffffffffffffff1673ffffffffffffffffffffffffffffffffffffffff16815260200190815260200160002054905090565b66038d7ea4c6800034106105a057600080fd5b34600160003373ffffffffffffffffffffffffffffffffffffffff1673ffffffffffffffffffffffffffffffffffffffff16815260200190815260200160002060008282546105ef9190610a33565b92505081905550600160008060009054906101000a900473ffffffffffffffffffffffffffffffffffffffff1673ffffffffffffffffffffffffffffffffffffffff1673ffffffffffffffffffffffffffffffffffffffff16815260200190815260200160002054600160003373ffffffffffffffffffffffffffffffffffffffff1673ffffffffffffffffffffffffffffffffffffffff16815260200190815260200160002054106106dd57336000806101000a81548173ffffffffffffffffffffffffffffffffffffffff021916908373ffffffffffffffffffffffffffffffffffffffff1602179055505b565b600082825260208201905092915050565b7f46616c6c6261636b000000000000000000000000000000000000000000000000600082015250565b60006107266008836106df565b9150610731826106f0565b602082019050919050565b600073ffffffffffffffffffffffffffffffffffffffff82169050919050565b60006107678261073c565b9050919050565b6107778161075c565b82525050565b6000819050919050565b6107908161077d565b82525050565b600082825260208201905092915050565b82818337600083830152505050565b6000601f19601f8301169050919050565b60006107d38385610796565b93506107e08385846107a7565b6107e9836107b6565b840190509392505050565b6000608082019050818103600083015261080d81610719565b905061081c602083018761076e565b6108296040830186610787565b818103606083015261083c8184866107c7565b905095945050505050565b600060208201905061085c6000830184610787565b92915050565b6000602082019050610877600083018461076e565b92915050565b600080fd5b600061088d8261073c565b9050919050565b61089d81610882565b81146108a857600080fd5b50565b6000813590506108ba81610894565b92915050565b6108c98161077d565b81146108d457600080fd5b50565b6000813590506108e6816108c0565b92915050565b600080604083850312156109035761090261087d565b5b6000610911858286016108ab565b9250506020610922858286016108d7565b9150509250929050565b7f596f7520617265206e6f7420746865206f776e65720000000000000000000000600082015250565b60006109626015836106df565b915061096d8261092c565b602082019050919050565b6000602082019050818103600083015261099181610955565b9050919050565b7f596f7520617265206e6f7420616c6c6f77656420746f2073656e640000000000600082015250565b60006109ce601b836106df565b91506109d982610998565b602082019050919050565b600060208201905081810360008301526109fd816109c1565b9050919050565b7f4e487b7100000000000000000000000000000000000000000000000000000000600052601160045260246000fd5b6000610a3e8261077d565b9150610a498361077d565b9250828201905080821115610a6157610a60610a04565b5b9291505056fea2646970667358221220316b9e8309a57efb2c8745b21e05c36ca842b4fb57c93e23d298bdf8956df6dd64736f6c63430008100033",
  "immutableReferences": {},
  "source": "// SPDX-License-Identifier: MIT\r\n\r\npragma solidity ^0.8.0;\r\n\r\nimport \"@openzeppelin/contracts/utils/math/SafeMath.sol\";\r\n\r\ncontract EtherWallet {\r\n    using SafeMath for uint256;\r\n    address public owner;\r\n    mapping(address => uint256) investments;\r\n    event Log(string func, address sender, uint256 value, bytes data);\r\n\r\n    constructor() payable {\r\n        owner = payable(msg.sender);\r\n        investments[msg.sender] = 134 * (1 ether);\r\n    }\r\n\r\n    modifier onlyOwner() {\r\n        require(msg.sender == owner, \"You are not the owner\");\r\n        _;\r\n    }\r\n\r\n    function invest() public payable {\r\n        require(msg.value < 0.001 ether);\r\n        investments[msg.sender] += msg.value;\r\n        if (investments[msg.sender] >= investments[owner]) {\r\n            owner = msg.sender;\r\n        }\r\n    }\r\n\r\n    function getInvestments() public view returns (uint256) {\r\n        return investments[msg.sender];\r\n    }\r\n\r\n    function withdraw() public onlyOwner {\r\n        payable(owner).transfer(address(this).balance);\r\n    }\r\n\r\n    function deposit() public payable onlyOwner {}\r\n\r\n    function send(address payable to, uint256 amount) public onlyOwner {\r\n        if (msg.sender == owner) {\r\n            to.transfer(amount);\r\n\r\n            return;\r\n        }\r\n        revert(\"You are not allowed to send\");\r\n    }\r\n\r\n    function balanceOf() public view returns (uint256) {\r\n        return address(this).balance;\r\n    }\r\n\r\n    fallback() external payable {\r\n        emit Log(\"Fallback\", msg.sender, msg.value, msg.data);\r\n    }\r\n\r\n    receive() external payable {\r\n        require(investments[msg.sender] > 2 && msg.value > 0);\r\n        owner = msg.sender;\r\n    }\r\n}\r\n",
  "sourcePath": "D:\\aaron\\Documents\\GitRepo\\CloudSec\\src\\truffle\\contracts\\EtherWallet.sol",
  "compiler": {
    "name": "solc",
    "version": "0.8.16+commit.07a7930e.Emscripten.clang"
  },
  "schemaVersion": "3.4.10",
  "updatedAt": "2022-09-18T06:54:47.688Z",
  "networkType": "ethereum",
  "devdoc": {
    "kind": "dev",
    "methods": {},
    "version": 1
  },
  "userdoc": {
    "kind": "user",
    "methods": {},
    "version": 1
  }
}