{
  "contractName": "Hand",
  "abi": [
    {
      "inputs": [
        {
          "internalType": "bool",
          "name": "_playerGuess",
          "type": "bool"
        }
      ],
      "name": "hideCoin",
      "outputs": [
        {
          "internalType": "string",
          "name": "",
          "type": "string"
        }
      ],
      "stateMutability": "nonpayable",
      "type": "function"
    }
  ],
  "bytecode": "0x60806040527f800000000000000000000000000000000000000000000000000000000000000060015534801561003457600080fd5b506107fc806100446000396000f3fe608060405234801561001057600080fd5b506004361061002b5760003560e01c80635235d2d514610030575b600080fd5b61004a600480360381019061004591906102ea565b610060565b60405161005791906103a7565b60405180910390f35b6060600061007860014361028190919063ffffffff16565b4060001c9050806000540361008c57600080fd5b8060008190555060006100aa6001548361029790919063ffffffff16565b9050600181146100bb5760006100be565b60015b600360006101000a81548160ff021916908315150217905550831515600360009054906101000a900460ff161515036101c7576040518060400160405280601b81526020017f477565737365642068616e6420686f6c64732074686520636f696e000000000081525060029081610135919061060e565b805461014090610427565b80601f016020809104026020016040519081016040528092919081815260200182805461016c90610427565b80156101b95780601f1061018e576101008083540402835291602001916101b9565b820191906000526020600020905b81548152906001019060200180831161019c57829003601f168201915b50505050509250505061027c565b6040518060600160405280602381526020016107a460239139600290816101ee919061060e565b80546101f990610427565b80601f016020809104026020016040519081016040528092919081815260200182805461022590610427565b80156102725780601f1061024757610100808354040283529160200191610272565b820191906000526020600020905b81548152906001019060200180831161025557829003601f168201915b5050505050925050505b919050565b6000818361028f919061070f565b905092915050565b600081836102a59190610772565b905092915050565b600080fd5b60008115159050919050565b6102c7816102b2565b81146102d257600080fd5b50565b6000813590506102e4816102be565b92915050565b600060208284031215610300576102ff6102ad565b5b600061030e848285016102d5565b91505092915050565b600081519050919050565b600082825260208201905092915050565b60005b83811015610351578082015181840152602081019050610336565b60008484015250505050565b6000601f19601f8301169050919050565b600061037982610317565b6103838185610322565b9350610393818560208601610333565b61039c8161035d565b840191505092915050565b600060208201905081810360008301526103c1818461036e565b905092915050565b7f4e487b7100000000000000000000000000000000000000000000000000000000600052604160045260246000fd5b7f4e487b7100000000000000000000000000000000000000000000000000000000600052602260045260246000fd5b6000600282049050600182168061043f57607f821691505b602082108103610452576104516103f8565b5b50919050565b60008190508160005260206000209050919050565b60006020601f8301049050919050565b600082821b905092915050565b6000600883026104ba7fffffffffffffffffffffffffffffffffffffffffffffffffffffffffffffffff8261047d565b6104c4868361047d565b95508019841693508086168417925050509392505050565b6000819050919050565b6000819050919050565b600061050b610506610501846104dc565b6104e6565b6104dc565b9050919050565b6000819050919050565b610525836104f0565b61053961053182610512565b84845461048a565b825550505050565b600090565b61054e610541565b61055981848461051c565b505050565b5b8181101561057d57610572600082610546565b60018101905061055f565b5050565b601f8211156105c25761059381610458565b61059c8461046d565b810160208510156105ab578190505b6105bf6105b78561046d565b83018261055e565b50505b505050565b600082821c905092915050565b60006105e5600019846008026105c7565b1980831691505092915050565b60006105fe83836105d4565b9150826002028217905092915050565b61061782610317565b67ffffffffffffffff8111156106305761062f6103c9565b5b61063a8254610427565b610645828285610581565b600060209050601f8311600181146106785760008415610666578287015190505b61067085826105f2565b8655506106d8565b601f19841661068686610458565b60005b828110156106ae57848901518255600182019150602085019450602081019050610689565b868310156106cb57848901516106c7601f8916826105d4565b8355505b6001600288020188555050505b505050505050565b7f4e487b7100000000000000000000000000000000000000000000000000000000600052601160045260246000fd5b600061071a826104dc565b9150610725836104dc565b925082820390508181111561073d5761073c6106e0565b5b92915050565b7f4e487b7100000000000000000000000000000000000000000000000000000000600052601260045260246000fd5b600061077d826104dc565b9150610788836104dc565b92508261079857610797610743565b5b82820490509291505056fe477565737365642068616e6420646f6573206e6f7420686f6c642074686520636f696ea2646970667358221220c1c67df2ab8c85971a5b157fe9c1434eb0acb8dae4da7c8787c70efcca320ff164736f6c63430008100033",
  "immutableReferences": {},
  "source": "// SPDX-License-Identifier: MIT\r\npragma solidity >=0.6.0 <0.9.0; \r\n\r\n\r\n\r\nimport \"@openzeppelin/contracts/utils/math/SafeMath.sol\";\r\n\r\n\r\n\r\ncontract Hand {\r\n  // Player must Identify what hand is holding the coin \r\n\r\n\r\n  using SafeMath for uint256;\r\n  uint256 prevHash;\r\n  uint256 ramdomFactor = 57896044618658097711785492504343953926634992332820282019728792003956564819968;\r\n  string guessedHand;\r\n  bool hand;\r\n\r\n\r\n  // function for placing coin in different hand\r\n  // user's input could be true or false\r\n  function hideCoin(bool _playerGuess) public returns (string memory) {\r\n    uint256 blockHashValue = uint256(blockhash(block.number.sub(1)));\r\n\r\n\r\n    if (prevHash == blockHashValue) {\r\n      revert();\r\n    }\r\n\r\n\r\n    prevHash = blockHashValue;\r\n    // further randomizes the value of the hand\r\n    uint256 randomHand = blockHashValue.div(ramdomFactor);\r\n    // sets the hand's value to randomHand\r\n    hand = randomHand == 1 ? true : false;\r\n\r\n\r\n    if (hand == _playerGuess) {\r\n        return guessedHand = \"Guessed hand holds the coin\";\r\n    } else {       \r\n        return guessedHand = \"Guessed hand does not hold the coin\";\r\n    }\r\n  }\r\n}\r\n",
  "sourcePath": "D:\\Trend\\CloudSec\\src\\truffle\\contracts\\Hand.sol",
  "compiler": {
    "name": "solc",
    "version": "0.8.16+commit.07a7930e.Emscripten.clang"
  },
  "schemaVersion": "3.4.9",
  "updatedAt": "2022-09-02T08:48:39.142Z",
  "devdoc": {
    "kind": "dev",
    "methods": {},
    "version": 1
  },
  "userdoc": {
    "kind": "user",
    "methods": {},
    "version": 1
  }
}