{
  "contractName": "LibraryContract",
  "abi": [
    {
      "inputs": [
        {
          "internalType": "uint256",
          "name": "_time",
          "type": "uint256"
        }
      ],
      "name": "setTime",
      "outputs": [],
      "stateMutability": "nonpayable",
      "type": "function"
    }
  ],
  "bytecode": "0x608060405234801561001057600080fd5b5060e38061001f6000396000f3fe6080604052348015600f57600080fd5b506004361060285760003560e01c80633beb26c414602d575b600080fd5b60436004803603810190603f91906085565b6045565b005b8060008190555050565b600080fd5b6000819050919050565b6065816054565b8114606f57600080fd5b50565b600081359050607f81605e565b92915050565b6000602082840312156098576097604f565b5b600060a4848285016072565b9150509291505056fea264697066735822122032ae78c737a2cd605feab57050b0c87999842fa59a1ff1143c23a446c0e806d564736f6c63430008100033",
  "immutableReferences": {},
  "source": "// SPDX-License-Identifier: MIT\r\npragma solidity >=0.6.0 <0.9.0; \r\n\r\n \r\ncontract Timezone {\r\n \r\n  // public library contracts\r\n  address public tz1Library; \r\n  address public tz2Library;     \r\n  address public owner; \r\n  uint storedTime; \r\n  // Sets the function signature for delegatecall\r\n  bytes4 constant setTimeSignature = bytes4(keccak256(\"setTime(uint256)\"));\r\n \r\n  constructor()  {\r\n    tz1Library = address(new LibraryContract());\r\n    tz2Library = address(new LibraryContract());\r\n    owner = msg.sender;\r\n  }\r\n \r\n  // set the time for timezone 1\r\n  function setFirstTime(uint _timeStamp) public {\r\n    tz1Library.delegatecall(abi.encodePacked(setTimeSignature, _timeStamp));\r\n  }\r\n \r\n  // set the time for timezone 2\r\n  function setSecondTime(uint _timeStamp) public {\r\n    tz2Library.delegatecall(abi.encodePacked(setTimeSignature, _timeStamp));\r\n  }\r\n\r\n // set the time for timezone 3\r\n  function setThirdTime(uint _timeStamp) public {\r\n    tz2Library.delegatecall(abi.encodePacked(setTimeSignature, _timeStamp));\r\n  }\r\n}\r\n\r\n// Simple library contract to set the time\r\ncontract LibraryContract {\r\n \r\n  // stores a timestamp\r\n  uint storedTime; \r\n \r\n  function setTime(uint _time) public {\r\n    storedTime = _time;\r\n  }\r\n}\r\n",
  "sourcePath": "D:\\Trend\\cloudsec\\src\\truffle\\contracts\\Timezone.sol",
  "compiler": {
    "name": "solc",
    "version": "0.8.16+commit.07a7930e.Emscripten.clang"
  },
  "schemaVersion": "3.4.9",
  "updatedAt": "2022-08-25T09:31:10.964Z",
  "devdoc": {
    "kind": "dev",
    "methods": {},
    "version": 1
  },
  "userdoc": {
    "kind": "user",
    "methods": {},
    "version": 1
  }
}