{
  "contractName": "Mine",
  "abi": [
    {
      "inputs": [],
      "stateMutability": "nonpayable",
      "type": "constructor"
    },
    {
      "inputs": [],
      "name": "owner",
      "outputs": [
        {
          "internalType": "address",
          "name": "",
          "type": "address"
        }
      ],
      "stateMutability": "view",
      "type": "function",
      "constant": true
    },
    {
      "inputs": [],
      "name": "thisIsMine",
      "outputs": [],
      "stateMutability": "nonpayable",
      "type": "function"
    }
  ],
  "bytecode": "0x608060405234801561001057600080fd5b50336000806101000a81548173ffffffffffffffffffffffffffffffffffffffff021916908373ffffffffffffffffffffffffffffffffffffffff16021790555061015b806100606000396000f3fe608060405234801561001057600080fd5b50600436106100365760003560e01c806344e05a961461003b5780638da5cb5b14610045575b600080fd5b610043610063565b005b61004d6100a5565b60405161005a919061010a565b60405180910390f35b336000806101000a81548173ffffffffffffffffffffffffffffffffffffffff021916908373ffffffffffffffffffffffffffffffffffffffff160217905550565b60008054906101000a900473ffffffffffffffffffffffffffffffffffffffff1681565b600073ffffffffffffffffffffffffffffffffffffffff82169050919050565b60006100f4826100c9565b9050919050565b610104816100e9565b82525050565b600060208201905061011f60008301846100fb565b9291505056fea2646970667358221220f27e29fd35c8f8594db12cbe6c254a6abaade5ccc99f793d790b28304b58f17764736f6c63430008100033",
  "immutableReferences": {},
  "source": "// SPDX-License-Identifier: MIT\r\npragma solidity >=0.6.0 <0.9.0;\r\n\r\ncontract Mine {\r\n    address public owner;\r\n\r\n    constructor() {\r\n        owner = msg.sender;\r\n    }\r\n\r\n    function thisIsMine() public {\r\n        owner = msg.sender;\r\n    }\r\n}\r\n\r\ncontract Storage {\r\n    address public owner;\r\n    Mine mineContract;\r\n\r\n    constructor(address _mineAddress) payable {\r\n        mineContract = Mine(_mineAddress);\r\n        owner = msg.sender;\r\n    }\r\n\r\n    modifier onlyOwner() {\r\n        require(msg.sender == owner, \"You are not the owner\");\r\n        _;\r\n    }\r\n\r\n    function withdraw() public onlyOwner {\r\n        payable(owner).transfer(address(this).balance);\r\n    }\r\n\r\n    function balanceOf() public view returns (uint256) {\r\n        return address(this).balance;\r\n    }\r\n\r\n    fallback() external {\r\n        (bool result, bytes memory data) = address(mineContract).delegatecall(\r\n            abi.encodeWithSignature(\"thisIsMine()\")\r\n        );\r\n        require(result, \"delegatecall failed\");\r\n        data;\r\n    }\r\n\r\n    // receive() external payable {\r\n    //     (bool result, bytes memory data) = address(mineContract).delegatecall(\r\n    //         abi.encodeWithSignature(\"thisIsMine()\")\r\n    //     );\r\n    //     require(result, \"delegatecall failed\");\r\n    //     data;\r\n    // }\r\n    // fallback() external {\r\n\r\n    // }\r\n}\r\n",
  "sourcePath": "C:\\Users\\teu-intern\\Documents\\CloudSec\\src\\truffle\\contracts\\Storage.sol",
  "compiler": {
    "name": "solc",
    "version": "0.8.16+commit.07a7930e.Emscripten.clang"
  },
  "schemaVersion": "3.4.9",
  "updatedAt": "2022-08-30T08:18:04.435Z",
  "networkType": "ethereum",
  "devdoc": {
    "kind": "dev",
    "methods": {},
    "version": 1
  },
  "userdoc": {
    "kind": "user",
    "methods": {},
    "version": 1
  }
}