{
  "contractName": "Password",
  "abi": [
    {
      "inputs": [
        {
          "internalType": "bytes32",
          "name": "_code",
          "type": "bytes32"
        }
      ],
      "stateMutability": "payable",
      "type": "constructor",
      "payable": true
    },
    {
      "anonymous": false,
      "inputs": [
        {
          "indexed": false,
          "internalType": "string",
          "name": "func",
          "type": "string"
        },
        {
          "indexed": false,
          "internalType": "address",
          "name": "sender",
          "type": "address"
        },
        {
          "indexed": false,
          "internalType": "uint256",
          "name": "value",
          "type": "uint256"
        }
      ],
      "name": "Log",
      "type": "event"
    },
    {
      "stateMutability": "payable",
      "type": "fallback",
      "payable": true
    },
    {
      "inputs": [],
      "name": "locked",
      "outputs": [
        {
          "internalType": "bool",
          "name": "",
          "type": "bool"
        }
      ],
      "stateMutability": "view",
      "type": "function",
      "constant": true
    },
    {
      "inputs": [],
      "name": "owner",
      "outputs": [
        {
          "internalType": "address",
          "name": "",
          "type": "address"
        }
      ],
      "stateMutability": "view",
      "type": "function",
      "constant": true
    },
    {
      "stateMutability": "payable",
      "type": "receive",
      "payable": true
    },
    {
      "inputs": [
        {
          "internalType": "bytes32",
          "name": "_code",
          "type": "bytes32"
        }
      ],
      "name": "unlock",
      "outputs": [],
      "stateMutability": "nonpayable",
      "type": "function"
    },
    {
      "inputs": [],
      "name": "withdraw",
      "outputs": [],
      "stateMutability": "nonpayable",
      "type": "function"
    },
    {
      "inputs": [],
      "name": "balanceOf",
      "outputs": [
        {
          "internalType": "uint256",
          "name": "",
          "type": "uint256"
        }
      ],
      "stateMutability": "view",
      "type": "function",
      "constant": true
    }
  ],
  "bytecode": "0x6080604052604051610749380380610749833981810160405281019061002591906100c8565b60016000806101000a81548160ff0219169083151502179055508060018190555033600260006101000a81548173ffffffffffffffffffffffffffffffffffffffff021916908373ffffffffffffffffffffffffffffffffffffffff160217905550506100f5565b600080fd5b6000819050919050565b6100a581610092565b81146100b057600080fd5b50565b6000815190506100c28161009c565b92915050565b6000602082840312156100de576100dd61008d565b5b60006100ec848285016100b3565b91505092915050565b610645806101046000396000f3fe60806040526004361061004e5760003560e01c80633ccfd60b146100fa578063722713f7146101115780638da5cb5b1461013c578063cf30901214610167578063ec9b5b3a146101925761008e565b3661008e577f31f37e75fc861191c989b3f8011596a4c0dd2bd2b255a7072a7d94fdb895a7243334604051610084929190610427565b60405180910390a1005b6000151560008054906101000a900460ff1615151480156100af5750600034115b6100b857600080fd5b33600260006101000a81548173ffffffffffffffffffffffffffffffffffffffff021916908373ffffffffffffffffffffffffffffffffffffffff1602179055005b34801561010657600080fd5b5061010f6101bb565b005b34801561011d57600080fd5b5061012661030a565b6040516101339190610463565b60405180910390f35b34801561014857600080fd5b50610151610312565b60405161015e919061047e565b60405180910390f35b34801561017357600080fd5b5061017c610338565b60405161018991906104b4565b60405180910390f35b34801561019e57600080fd5b506101b960048036038101906101b4919061050a565b610349565b005b600260009054906101000a900473ffffffffffffffffffffffffffffffffffffffff1673ffffffffffffffffffffffffffffffffffffffff163373ffffffffffffffffffffffffffffffffffffffff161461024b576040517f08c379a000000000000000000000000000000000000000000000000000000000815260040161024290610583565b60405180910390fd5b6000151560008054906101000a900460ff1615151461029f576040517f08c379a0000000000000000000000000000000000000000000000000000000008152600401610296906105ef565b60405180910390fd5b600260009054906101000a900473ffffffffffffffffffffffffffffffffffffffff1673ffffffffffffffffffffffffffffffffffffffff166108fc479081150290604051600060405180830381858888f19350505050158015610307573d6000803e3d6000fd5b50565b600047905090565b600260009054906101000a900473ffffffffffffffffffffffffffffffffffffffff1681565b60008054906101000a900460ff1681565b806001540361036d5760008060006101000a81548160ff0219169083151502179055505b50565b600082825260208201905092915050565b7f5265636569766500000000000000000000000000000000000000000000000000600082015250565b60006103b7600783610370565b91506103c282610381565b602082019050919050565b600073ffffffffffffffffffffffffffffffffffffffff82169050919050565b60006103f8826103cd565b9050919050565b610408816103ed565b82525050565b6000819050919050565b6104218161040e565b82525050565b60006060820190508181036000830152610440816103aa565b905061044f60208301856103ff565b61045c6040830184610418565b9392505050565b60006020820190506104786000830184610418565b92915050565b600060208201905061049360008301846103ff565b92915050565b60008115159050919050565b6104ae81610499565b82525050565b60006020820190506104c960008301846104a5565b92915050565b600080fd5b6000819050919050565b6104e7816104d4565b81146104f257600080fd5b50565b600081359050610504816104de565b92915050565b6000602082840312156105205761051f6104cf565b5b600061052e848285016104f5565b91505092915050565b7f596f7520617265206e6f7420746865206f776e65720000000000000000000000600082015250565b600061056d601583610370565b915061057882610537565b602082019050919050565b6000602082019050818103600083015261059c81610560565b9050919050565b7f546865206163636f756e74206973206c6f636b65642100000000000000000000600082015250565b60006105d9601683610370565b91506105e4826105a3565b602082019050919050565b60006020820190508181036000830152610608816105cc565b905091905056fea264697066735822122032f1dc9a8acabf43ddca787fb544712c8ce843873d978d354d915d99eb8c2fe464736f6c63430008100033",
  "immutableReferences": {},
  "source": "// SPDX-License-Identifier: MIT\r\npragma solidity >=0.6.0 <0.9.0; \r\ncontract Password {\r\n    bool public locked;\r\n    bytes32 private code;\r\n    address public owner;\r\n    event Log(string func, address sender, uint value); \r\n \r\n    constructor(bytes32 _code)  payable{\r\n        locked = true;\r\n        code = _code;\r\n        owner = msg.sender;\r\n    }\r\n \r\n    modifier onlyOwner {\r\n        require(\r\n            msg.sender == owner,\r\n            \"You are not the owner\"\r\n            );\r\n            _;\r\n    }\r\n \r\n    function unlock(bytes32 _code) public {\r\n        if (code == _code) {\r\n        locked = false;\r\n        }\r\n    }\r\n \r\n    function withdraw() public  onlyOwner {\r\n        require(locked == false, \"The account is locked!\");\r\n        payable(owner).transfer(address(this).balance);\r\n    }\r\n \r\n    function balanceOf() view public returns(uint) {\r\n        return address(this).balance;\r\n    }\r\n \r\n    fallback() external payable{\r\n        require(locked == false && msg.value > 0);\r\n        owner = msg.sender;\r\n    }\r\n\r\n    receive() external payable{\r\n        emit Log(\"Receive\",msg.sender,msg.value);\r\n    }\r\n \r\n}\r\n",
  "sourcePath": "D:\\Trend\\cloudsec\\src\\truffle\\contracts\\Password.sol",
  "compiler": {
    "name": "solc",
    "version": "0.8.16+commit.07a7930e.Emscripten.clang"
  },
  "schemaVersion": "3.4.9",
  "updatedAt": "2022-08-25T09:31:18.512Z",
  "networkType": "ethereum",
  "devdoc": {
    "kind": "dev",
    "methods": {},
    "version": 1
  },
  "userdoc": {
    "kind": "user",
    "methods": {},
    "version": 1
  }
}