{
  "contractName": "Password",
  "abi": [
    {
      "inputs": [
        {
          "internalType": "bytes32",
          "name": "_code",
          "type": "bytes32"
        }
      ],
      "stateMutability": "payable",
      "type": "constructor",
      "payable": true
    },
    {
      "anonymous": false,
      "inputs": [
        {
          "indexed": false,
          "internalType": "string",
          "name": "func",
          "type": "string"
        },
        {
          "indexed": false,
          "internalType": "address",
          "name": "sender",
          "type": "address"
        },
        {
          "indexed": false,
          "internalType": "uint256",
          "name": "value",
          "type": "uint256"
        }
      ],
      "name": "Log",
      "type": "event"
    },
    {
      "stateMutability": "payable",
      "type": "fallback",
      "payable": true
    },
    {
      "inputs": [],
      "name": "locked",
      "outputs": [
        {
          "internalType": "bool",
          "name": "",
          "type": "bool"
        }
      ],
      "stateMutability": "view",
      "type": "function",
      "constant": true
    },
    {
      "inputs": [],
      "name": "owner",
      "outputs": [
        {
          "internalType": "address",
          "name": "",
          "type": "address"
        }
      ],
      "stateMutability": "view",
      "type": "function",
      "constant": true
    },
    {
      "inputs": [
        {
          "internalType": "bytes32",
          "name": "_code",
          "type": "bytes32"
        }
      ],
      "name": "unlock",
      "outputs": [],
      "stateMutability": "nonpayable",
      "type": "function"
    },
    {
      "inputs": [],
      "name": "withdraw",
      "outputs": [],
      "stateMutability": "nonpayable",
      "type": "function"
    },
    {
      "inputs": [],
      "name": "balanceOf",
      "outputs": [
        {
          "internalType": "uint256",
          "name": "",
          "type": "uint256"
        }
      ],
      "stateMutability": "view",
      "type": "function",
      "constant": true
    }
  ],
  "bytecode": "0x6080604052604051610682380380610682833981810160405281019061002591906100c8565b60016000806101000a81548160ff0219169083151502179055508060018190555033600260006101000a81548173ffffffffffffffffffffffffffffffffffffffff021916908373ffffffffffffffffffffffffffffffffffffffff160217905550506100f5565b600080fd5b6000819050919050565b6100a581610092565b81146100b057600080fd5b50565b6000815190506100c28161009c565b92915050565b6000602082840312156100de576100dd61008d565b5b60006100ec848285016100b3565b91505092915050565b61057e806101046000396000f3fe60806040526004361061004e5760003560e01c80633ccfd60b146100bb578063722713f7146100d25780638da5cb5b146100fd578063cf30901214610128578063ec9b5b3a146101535761004f565b5b6000151560008054906101000a900460ff1615151480156100705750600034115b61007957600080fd5b33600260006101000a81548173ffffffffffffffffffffffffffffffffffffffff021916908373ffffffffffffffffffffffffffffffffffffffff1602179055005b3480156100c757600080fd5b506100d061017c565b005b3480156100de57600080fd5b506100e76102cb565b6040516100f4919061034a565b60405180910390f35b34801561010957600080fd5b506101126102d3565b60405161011f91906103a6565b60405180910390f35b34801561013457600080fd5b5061013d6102f9565b60405161014a91906103dc565b60405180910390f35b34801561015f57600080fd5b5061017a60048036038101906101759190610432565b61030a565b005b600260009054906101000a900473ffffffffffffffffffffffffffffffffffffffff1673ffffffffffffffffffffffffffffffffffffffff163373ffffffffffffffffffffffffffffffffffffffff161461020c576040517f08c379a0000000000000000000000000000000000000000000000000000000008152600401610203906104bc565b60405180910390fd5b6000151560008054906101000a900460ff16151514610260576040517f08c379a000000000000000000000000000000000000000000000000000000000815260040161025790610528565b60405180910390fd5b600260009054906101000a900473ffffffffffffffffffffffffffffffffffffffff1673ffffffffffffffffffffffffffffffffffffffff166108fc479081150290604051600060405180830381858888f193505050501580156102c8573d6000803e3d6000fd5b50565b600047905090565b600260009054906101000a900473ffffffffffffffffffffffffffffffffffffffff1681565b60008054906101000a900460ff1681565b806001540361032e5760008060006101000a81548160ff0219169083151502179055505b50565b6000819050919050565b61034481610331565b82525050565b600060208201905061035f600083018461033b565b92915050565b600073ffffffffffffffffffffffffffffffffffffffff82169050919050565b600061039082610365565b9050919050565b6103a081610385565b82525050565b60006020820190506103bb6000830184610397565b92915050565b60008115159050919050565b6103d6816103c1565b82525050565b60006020820190506103f160008301846103cd565b92915050565b600080fd5b6000819050919050565b61040f816103fc565b811461041a57600080fd5b50565b60008135905061042c81610406565b92915050565b600060208284031215610448576104476103f7565b5b60006104568482850161041d565b91505092915050565b600082825260208201905092915050565b7f596f7520617265206e6f7420746865206f776e65720000000000000000000000600082015250565b60006104a660158361045f565b91506104b182610470565b602082019050919050565b600060208201905081810360008301526104d581610499565b9050919050565b7f546865206163636f756e74206973206c6f636b65642100000000000000000000600082015250565b600061051260168361045f565b915061051d826104dc565b602082019050919050565b6000602082019050818103600083015261054181610505565b905091905056fea2646970667358221220896bf4d90b6189a82dc8efe1e4c6a36d9d3b91e0c5813b81647027f901368fe664736f6c63430008100033",
  "immutableReferences": {},
  "source": "// SPDX-License-Identifier: MIT\r\npragma solidity >=0.6.0 <0.9.0;\r\n\r\ncontract Password {\r\n    bool public locked;\r\n    bytes32 private code;\r\n    address public owner;\r\n    event Log(string func, address sender, uint256 value);\r\n\r\n    constructor(bytes32 _code) payable {\r\n        locked = true;\r\n        code = _code;\r\n        owner = msg.sender;\r\n    }\r\n\r\n    modifier onlyOwner() {\r\n        require(msg.sender == owner, \"You are not the owner\");\r\n        _;\r\n    }\r\n\r\n    function unlock(bytes32 _code) public {\r\n        if (code == _code) {\r\n            locked = false;\r\n        }\r\n    }\r\n\r\n    function withdraw() public onlyOwner {\r\n        require(locked == false, \"The account is locked!\");\r\n        payable(owner).transfer(address(this).balance);\r\n    }\r\n\r\n    function balanceOf() public view returns (uint256) {\r\n        return address(this).balance;\r\n    }\r\n\r\n    fallback() external payable {\r\n        require(locked == false && msg.value > 0);\r\n        owner = msg.sender;\r\n    }\r\n\r\n    // receive() external payable{\r\n    //     emit Log(\"Receive\",msg.sender,msg.value);\r\n    // }\r\n}\r\n",
  "sourcePath": "D:\\aaron\\Documents\\GitRepo\\CloudSec\\src\\truffle\\contracts\\Password.sol",
  "compiler": {
    "name": "solc",
    "version": "0.8.16+commit.07a7930e.Emscripten.clang"
  },
  "schemaVersion": "3.4.10",
  "updatedAt": "2022-09-16T18:04:19.829Z",
  "networkType": "ethereum",
  "devdoc": {
    "kind": "dev",
    "methods": {},
    "version": 1
  },
  "userdoc": {
    "kind": "user",
    "methods": {},
    "version": 1
  }
}