{
  "contractName": "roulletteSixteen",
  "abi": [
    {
      "inputs": [],
      "name": "Claimant",
      "outputs": [
        {
          "internalType": "address",
          "name": "",
          "type": "address"
        }
      ],
      "stateMutability": "view",
      "type": "function",
      "constant": true
    },
    {
      "inputs": [],
      "name": "balance",
      "outputs": [
        {
          "internalType": "uint256",
          "name": "",
          "type": "uint256"
        }
      ],
      "stateMutability": "view",
      "type": "function",
      "constant": true
    },
    {
      "inputs": [],
      "name": "winCondition",
      "outputs": [
        {
          "internalType": "uint256",
          "name": "",
          "type": "uint256"
        }
      ],
      "stateMutability": "view",
      "type": "function",
      "constant": true
    },
    {
      "inputs": [],
      "name": "viewBalance",
      "outputs": [
        {
          "internalType": "uint256",
          "name": "",
          "type": "uint256"
        }
      ],
      "stateMutability": "view",
      "type": "function",
      "constant": true
    },
    {
      "inputs": [],
      "name": "deposit",
      "outputs": [],
      "stateMutability": "payable",
      "type": "function",
      "payable": true
    },
    {
      "inputs": [],
      "name": "Reward",
      "outputs": [],
      "stateMutability": "nonpayable",
      "type": "function"
    }
  ],
  "bytecode": "0x608060405267de0b6b3a7640000060005534801561001c57600080fd5b506107418061002c6000396000f3fe6080604052600436106100555760003560e01c80633f3d58a71461005a5780633ff1e05b14610085578063b69ef8a8146100b0578063d0e30db0146100db578063e2e15f2e146100e5578063f0567346146100fc575b600080fd5b34801561006657600080fd5b5061006f610127565b60405161007c91906103b8565b60405180910390f35b34801561009157600080fd5b5061009a61012d565b6040516100a791906103b8565b60405180910390f35b3480156100bc57600080fd5b506100c5610135565b6040516100d291906103b8565b60405180910390f35b6100e361013b565b005b3480156100f157600080fd5b506100fa61023a565b005b34801561010857600080fd5b50610111610379565b60405161011e9190610414565b60405180910390f35b60005481565b600047905090565b60025481565b670de0b6b3a76400003414610185576040517f08c379a000000000000000000000000000000000000000000000000000000000815260040161017c906104b2565b60405180910390fd5b346002546101939190610501565b60028190555047600281905550600054600254106101e6576040517f08c379a00000000000000000000000000000000000000000000000000000000081526004016101dd906105a7565b60405180910390fd5b600054600254036102375733600160006101000a81548173ffffffffffffffffffffffffffffffffffffffff021916908373ffffffffffffffffffffffffffffffffffffffff160217905550610238565b5b565b600160009054906101000a900473ffffffffffffffffffffffffffffffffffffffff1673ffffffffffffffffffffffffffffffffffffffff163373ffffffffffffffffffffffffffffffffffffffff16146102ca576040517f08c379a00000000000000000000000000000000000000000000000000000000081526004016102c190610639565b60405180910390fd5b60003373ffffffffffffffffffffffffffffffffffffffff16476040516102f09061068a565b60006040518083038185875af1925050503d806000811461032d576040519150601f19603f3d011682016040523d82523d6000602084013e610332565b606091505b5050905080610376576040517f08c379a000000000000000000000000000000000000000000000000000000000815260040161036d906106eb565b60405180910390fd5b50565b600160009054906101000a900473ffffffffffffffffffffffffffffffffffffffff1681565b6000819050919050565b6103b28161039f565b82525050565b60006020820190506103cd60008301846103a9565b92915050565b600073ffffffffffffffffffffffffffffffffffffffff82169050919050565b60006103fe826103d3565b9050919050565b61040e816103f3565b82525050565b60006020820190506104296000830184610405565b92915050565b600082825260208201905092915050565b7f54686520616d6f756e74206f662065746865722073686f756c64206265206f6e60008201527f6c7920626520657175616c20746f203100000000000000000000000000000000602082015250565b600061049c60308361042f565b91506104a782610440565b604082019050919050565b600060208201905081810360008301526104cb8161048f565b9050919050565b7f4e487b7100000000000000000000000000000000000000000000000000000000600052601160045260246000fd5b600061050c8261039f565b91506105178361039f565b925082820190508082111561052f5761052e6104d2565b5b92915050565b7f42616c616e6365206973206c657373207468616e2031362c20594f75206c6f7360008201527f6500000000000000000000000000000000000000000000000000000000000000602082015250565b600061059160218361042f565b915061059c82610535565b604082019050919050565b600060208201905081810360008301526105c081610584565b9050919050565b7f4164647265737320697320656c696769626c6520666f7220746865207265776160008201527f7264000000000000000000000000000000000000000000000000000000000000602082015250565b600061062360228361042f565b915061062e826105c7565b604082019050919050565b6000602082019050818103600083015261065281610616565b9050919050565b600081905092915050565b50565b6000610674600083610659565b915061067f82610664565b600082019050919050565b600061069582610667565b9150819050919050565b7f4661696c656420746f2073656e64207468652072657761726400000000000000600082015250565b60006106d560198361042f565b91506106e08261069f565b602082019050919050565b60006020820190508181036000830152610704816106c8565b905091905056fea2646970667358221220f6880fadb5b2514ad9907bdee3c058372fe06de8af04e6358b1490133d53bd5c64736f6c63430008100033",
  "immutableReferences": {},
  "source": "// SPDX-License-Identifier: MIT\r\n\r\npragma solidity ^0.8.0;\r\n\r\n\r\ncontract roulletteSixteen {\r\n    uint256 public winCondition = 16 ether;\r\n    address public Claimant; \r\n\r\n\r\n    uint256 public balance;\r\n    \r\n    \r\n    function viewBalance() public view returns (uint256) {\r\n        return address(this).balance;\r\n    }\r\n\r\n\r\n    function deposit() public payable {\r\n        require(msg.value == 1 ether, \"The amount of ether should be only be equal to 1\");\r\n\r\n\r\n        balance = balance + msg.value;\r\n        // deposit is equal to 16 or not\r\n        balance = address(this).balance;\r\n        require(balance < winCondition, \"Balance is less than 16, YOu lose\");\r\n\r\n\r\n        if (balance == winCondition) {\r\n            Claimant = msg.sender;\r\n        }  else {\r\n        }\r\n    }\r\n\r\n\r\n    function Reward() public {\r\n            require(msg.sender == Claimant, \"Address is eligible for the reward\");   \r\n\r\n\r\n            (bool sent, ) = msg.sender.call{value: address(this).balance}(\"\");\r\n            require(sent, \"Failed to send the reward\");\r\n\r\n\r\n    }\r\n}\r\n",
  "sourcePath": "D:\\Trend\\CloudSec\\src\\truffle\\contracts\\roulletteSixteen.sol",
  "compiler": {
    "name": "solc",
    "version": "0.8.16+commit.07a7930e.Emscripten.clang"
  },
  "schemaVersion": "3.4.9",
  "updatedAt": "2022-08-30T18:53:40.907Z",
  "networkType": "ethereum",
  "devdoc": {
    "kind": "dev",
    "methods": {},
    "version": 1
  },
  "userdoc": {
    "kind": "user",
    "methods": {},
    "version": 1
  }
}