{
  "contractName": "Seller",
  "abi": [
    {
      "inputs": [],
      "stateMutability": "nonpayable",
      "type": "constructor"
    },
    {
      "inputs": [],
      "name": "isItemSold",
      "outputs": [
        {
          "internalType": "bool",
          "name": "",
          "type": "bool"
        }
      ],
      "stateMutability": "view",
      "type": "function"
    },
    {
      "inputs": [],
      "name": "itemPrice",
      "outputs": [
        {
          "internalType": "uint256",
          "name": "",
          "type": "uint256"
        }
      ],
      "stateMutability": "view",
      "type": "function"
    },
    {
      "inputs": [],
      "name": "owner",
      "outputs": [
        {
          "internalType": "address",
          "name": "",
          "type": "address"
        }
      ],
      "stateMutability": "view",
      "type": "function"
    },
    {
      "inputs": [],
      "name": "itemSoldPrice",
      "outputs": [
        {
          "internalType": "uint256",
          "name": "",
          "type": "uint256"
        }
      ],
      "stateMutability": "view",
      "type": "function"
    },
    {
      "inputs": [],
      "name": "buyItem",
      "outputs": [],
      "stateMutability": "nonpayable",
      "type": "function"
    }
  ],
  "bytecode": "0x6080604052610bb860005534801561001657600080fd5b50336001806101000a81548173ffffffffffffffffffffffffffffffffffffffff021916908373ffffffffffffffffffffffffffffffffffffffff160217905550610629806100666000396000f3fe608060405234801561001057600080fd5b50600436106100575760003560e01c80635067cf8d1461005c578063795612d61461007a5780638da5cb5b14610084578063d7bd6e96146100a2578063dac6db1c146100c0575b600080fd5b6100646100de565b6040516100719190610393565b60405180910390f35b610082610213565b005b61008c61033d565b60405161009991906103ef565b60405180910390f35b6100aa610361565b6040516100b79190610425565b60405180910390f35b6100c8610374565b6040516100d59190610393565b60405180910390f35b600060018054906101000a900473ffffffffffffffffffffffffffffffffffffffff1673ffffffffffffffffffffffffffffffffffffffff163373ffffffffffffffffffffffffffffffffffffffff161461016e576040517f08c379a00000000000000000000000000000000000000000000000000000000081526004016101659061049d565b60405180910390fd5b60011515600160009054906101000a900460ff161515146101c4576040517f08c379a00000000000000000000000000000000000000000000000000000000081526004016101bb90610509565b60405180910390fd5b610bb8600054101561020b576040517f08c379a000000000000000000000000000000000000000000000000000000000815260040161020290610575565b60405180910390fd5b600054905090565b60003390506000548173ffffffffffffffffffffffffffffffffffffffff166398d5fdca6040518163ffffffff1660e01b8152600401602060405180830381865afa158015610266573d6000803e3d6000fd5b505050506040513d601f19601f8201168201806040525081019061028a91906105c6565b101580156102a55750600160009054906101000a900460ff16155b1561033a5760018060006101000a81548160ff0219169083151502179055508073ffffffffffffffffffffffffffffffffffffffff166398d5fdca6040518163ffffffff1660e01b8152600401602060405180830381865afa15801561030f573d6000803e3d6000fd5b505050506040513d601f19601f8201168201806040525081019061033391906105c6565b6000819055505b50565b60018054906101000a900473ffffffffffffffffffffffffffffffffffffffff1681565b600160009054906101000a900460ff1681565b60005481565b6000819050919050565b61038d8161037a565b82525050565b60006020820190506103a86000830184610384565b92915050565b600073ffffffffffffffffffffffffffffffffffffffff82169050919050565b60006103d9826103ae565b9050919050565b6103e9816103ce565b82525050565b600060208201905061040460008301846103e0565b92915050565b60008115159050919050565b61041f8161040a565b82525050565b600060208201905061043a6000830184610416565b92915050565b600082825260208201905092915050565b7f796f7520617265206e6f74207468652073656c6c657200000000000000000000600082015250565b6000610487601683610440565b915061049282610451565b602082019050919050565b600060208201905081810360008301526104b68161047a565b9050919050565b7f4974656d206973207374696c6c206e6f7420736f6c6400000000000000000000600082015250565b60006104f3601683610440565b91506104fe826104bd565b602082019050919050565b60006020820190508181036000830152610522816104e6565b9050919050565b7f596f752068617665206265656e207363616d6d65642121000000000000000000600082015250565b600061055f601783610440565b915061056a82610529565b602082019050919050565b6000602082019050818103600083015261058e81610552565b9050919050565b600080fd5b6105a38161037a565b81146105ae57600080fd5b50565b6000815190506105c08161059a565b92915050565b6000602082840312156105dc576105db610595565b5b60006105ea848285016105b1565b9150509291505056fea264697066735822122061a5f671afb6897c29386be8ff4a3abcea5aaf8a557a26660facf5030fa67ff464736f6c63430008100033",
  "immutableReferences": {},
  "source": "// SPDX-License-Identifier: MIT\r\npragma solidity ^0.8.16;\r\ninterface Customer {\r\n  function getPrice() external view returns (uint);\r\n}\r\n \r\ncontract Seller {\r\n  /*\r\n \r\n  \r\n  \r\n    \r\n  \r\n    \r\n              \r\n                      \r\n                    \r\n                \r\n                      \r\n                  \r\n                \r\n                \r\n            \r\n                                                  \r\n                                                  \r\n  \r\n  \r\n \r\n  */\r\n    uint public itemPrice = 3000;\r\n    bool public isItemSold;\r\n    address public owner;\r\n \r\n    constructor() {\r\n      owner = msg.sender;\r\n    }\r\n \r\n    function itemSoldPrice() public view returns (uint){\r\n      require(msg.sender == owner,\"you are not the seller\");\r\n        require( isItemSold == true, \"Item is still not sold\");\r\n          require( itemPrice >= 3000, \"You have been scammed!!\");\r\n              return itemPrice;\r\n    }\r\n \r\n    function buyItem() public {\r\n            Customer _customer = Customer(msg.sender);\r\n            if (_customer.getPrice() >= itemPrice && !isItemSold) { \r\n                isItemSold = true;\r\n                itemPrice = _customer.getPrice();\r\n        }\r\n    }\r\n}\r\n",
  "sourcePath": "C:\\Users\\teu-intern\\Documents\\CloudSec\\src\\truffle\\contracts\\Seller.sol",
  "compiler": {
    "name": "solc",
    "version": "0.8.16+commit.07a7930e.Emscripten.clang"
  },
  "schemaVersion": "3.4.9",
  "updatedAt": "2022-08-26T08:52:28.188Z",
  "devdoc": {
    "kind": "dev",
    "methods": {},
    "version": 1
  },
  "userdoc": {
    "kind": "user",
    "methods": {},
    "version": 1
  }
}