{
  "contractName": "Siphon",
  "abi": [
    {
      "inputs": [
        {
          "internalType": "address",
          "name": "",
          "type": "address"
        }
      ],
      "name": "balances",
      "outputs": [
        {
          "internalType": "uint256",
          "name": "",
          "type": "uint256"
        }
      ],
      "stateMutability": "view",
      "type": "function",
      "constant": true
    },
    {
      "inputs": [],
      "name": "deposit",
      "outputs": [],
      "stateMutability": "payable",
      "type": "function",
      "payable": true
    },
    {
      "inputs": [
        {
          "internalType": "uint256",
          "name": "_amount",
          "type": "uint256"
        }
      ],
      "name": "withdraw",
      "outputs": [],
      "stateMutability": "nonpayable",
      "type": "function"
    }
  ],
  "bytecode": "0x608060405234801561001057600080fd5b5061056a806100206000396000f3fe6080604052600436106100345760003560e01c806327e235e3146100395780632e1a7d4d14610076578063d0e30db01461009f575b600080fd5b34801561004557600080fd5b50610060600480360381019061005b9190610320565b6100a9565b60405161006d9190610366565b60405180910390f35b34801561008257600080fd5b5061009d600480360381019061009891906103ad565b6100c1565b005b6100a76101c6565b005b60006020528060005260406000206000915090505481565b60003373ffffffffffffffffffffffffffffffffffffffff16826040516100e79061040b565b60006040518083038185875af1925050503d8060008114610124576040519150601f19603f3d011682016040523d82523d6000602084013e610129565b606091505b505090508061016d576040517f08c379a00000000000000000000000000000000000000000000000000000000081526004016101649061047d565b60405180910390fd5b816000803373ffffffffffffffffffffffffffffffffffffffff1673ffffffffffffffffffffffffffffffffffffffff16815260200190815260200160002060008282546101bb91906104cc565b925050819055505050565b60016000803373ffffffffffffffffffffffffffffffffffffffff1673ffffffffffffffffffffffffffffffffffffffff16815260200190815260200160002054101561021257600080fd5b610263346000803373ffffffffffffffffffffffffffffffffffffffff1673ffffffffffffffffffffffffffffffffffffffff168152602001908152602001600020546102a790919063ffffffff16565b6000803373ffffffffffffffffffffffffffffffffffffffff1673ffffffffffffffffffffffffffffffffffffffff16815260200190815260200160002081905550565b600081836102b59190610500565b905092915050565b600080fd5b600073ffffffffffffffffffffffffffffffffffffffff82169050919050565b60006102ed826102c2565b9050919050565b6102fd816102e2565b811461030857600080fd5b50565b60008135905061031a816102f4565b92915050565b600060208284031215610336576103356102bd565b5b60006103448482850161030b565b91505092915050565b6000819050919050565b6103608161034d565b82525050565b600060208201905061037b6000830184610357565b92915050565b61038a8161034d565b811461039557600080fd5b50565b6000813590506103a781610381565b92915050565b6000602082840312156103c3576103c26102bd565b5b60006103d184828501610398565b91505092915050565b600081905092915050565b50565b60006103f56000836103da565b9150610400826103e5565b600082019050919050565b6000610416826103e8565b9150819050919050565b600082825260208201905092915050565b7f5472616e73616374696f6e2072657175657374206661696c6564000000000000600082015250565b6000610467601a83610420565b915061047282610431565b602082019050919050565b600060208201905081810360008301526104968161045a565b9050919050565b7f4e487b7100000000000000000000000000000000000000000000000000000000600052601160045260246000fd5b60006104d78261034d565b91506104e28361034d565b92508282039050818111156104fa576104f961049d565b5b92915050565b600061050b8261034d565b91506105168361034d565b925082820190508082111561052e5761052d61049d565b5b9291505056fea2646970667358221220f7493af7a4224f9f4ebbcd578d90e687dd01fefc4470ebb1a113490b965d3cfe64736f6c63430008100033",
  "immutableReferences": {},
  "source": "// SPDX-License-Identifier: MIT\r\npragma solidity >=0.6.0 <0.9.0; \r\n\r\n\r\n\r\nimport \"@openzeppelin/contracts/utils/math/SafeMath.sol\";\r\n\r\n\r\n\r\ncontract Siphon {\r\n  \r\n  using SafeMath for uint256;\r\n  mapping(address => uint256) public balances;\r\n\r\n\r\n  // User can use this to deposit ethereum\r\n  function deposit() public payable {\r\n    require(balances[msg.sender] >= 1);\r\n    balances[msg.sender] = balances[msg.sender].add(msg.value);\r\n  }\r\n\r\n\r\n  function withdraw(uint _amount) public {\r\n    (bool result, ) = msg.sender.call{value:_amount}(\"\");\r\n    require(result, \"Transaction request failed\");\r\n    balances[msg.sender] -= _amount;\r\n\r\n\r\n  }\r\n\r\n\r\n}\r\n",
  "sourcePath": "D:\\Trend\\CloudSec\\src\\truffle\\contracts\\Siphon.sol",
  "compiler": {
    "name": "solc",
    "version": "0.8.16+commit.07a7930e.Emscripten.clang"
  },
  "schemaVersion": "3.4.9",
  "updatedAt": "2022-08-30T18:53:43.564Z",
  "networkType": "ethereum",
  "devdoc": {
    "kind": "dev",
    "methods": {},
    "version": 1
  },
  "userdoc": {
    "kind": "user",
    "methods": {},
    "version": 1
  }
}