{
  "contractName": "Storage",
  "abi": [
    {
      "inputs": [
        {
          "internalType": "address",
          "name": "_mineAddress",
          "type": "address"
        }
      ],
      "stateMutability": "payable",
      "type": "constructor",
      "payable": true
    },
    {
      "stateMutability": "nonpayable",
      "type": "fallback"
    },
    {
      "inputs": [],
      "name": "owner",
      "outputs": [
        {
          "internalType": "address",
          "name": "",
          "type": "address"
        }
      ],
      "stateMutability": "view",
      "type": "function",
      "constant": true
    },
    {
      "inputs": [],
      "name": "withdraw",
      "outputs": [],
      "stateMutability": "nonpayable",
      "type": "function"
    },
    {
      "inputs": [],
      "name": "balanceOf",
      "outputs": [
        {
          "internalType": "uint256",
          "name": "",
          "type": "uint256"
        }
      ],
      "stateMutability": "view",
      "type": "function",
      "constant": true
    }
  ],
  "bytecode": "0x60806040526040516106843803806106848339818101604052810190610025919061010f565b80600160006101000a81548173ffffffffffffffffffffffffffffffffffffffff021916908373ffffffffffffffffffffffffffffffffffffffff160217905550336000806101000a81548173ffffffffffffffffffffffffffffffffffffffff021916908373ffffffffffffffffffffffffffffffffffffffff1602179055505061013c565b600080fd5b600073ffffffffffffffffffffffffffffffffffffffff82169050919050565b60006100dc826100b1565b9050919050565b6100ec816100d1565b81146100f757600080fd5b50565b600081519050610109816100e3565b92915050565b600060208284031215610125576101246100ac565b5b6000610133848285016100fa565b91505092915050565b6105398061014b6000396000f3fe608060405234801561001057600080fd5b50600436106100455760003560e01c80633ccfd60b14610199578063722713f7146101a35780638da5cb5b146101c157610046565b5b600080600160009054906101000a900473ffffffffffffffffffffffffffffffffffffffff1673ffffffffffffffffffffffffffffffffffffffff166040516024016040516020818303038152906040527f44e05a96000000000000000000000000000000000000000000000000000000007bffffffffffffffffffffffffffffffffffffffffffffffffffffffff19166020820180517bffffffffffffffffffffffffffffffffffffffffffffffffffffffff83818316178352505050506040516101129190610373565b600060405180830381855af49150503d806000811461014d576040519150601f19603f3d011682016040523d82523d6000602084013e610152565b606091505b509150915081610197576040517f08c379a000000000000000000000000000000000000000000000000000000000815260040161018e906103e7565b60405180910390fd5b005b6101a16101df565b005b6101ab6102d6565b6040516101b89190610420565b60405180910390f35b6101c96102de565b6040516101d6919061047c565b60405180910390f35b60008054906101000a900473ffffffffffffffffffffffffffffffffffffffff1673ffffffffffffffffffffffffffffffffffffffff163373ffffffffffffffffffffffffffffffffffffffff161461026d576040517f08c379a0000000000000000000000000000000000000000000000000000000008152600401610264906104e3565b60405180910390fd5b60008054906101000a900473ffffffffffffffffffffffffffffffffffffffff1673ffffffffffffffffffffffffffffffffffffffff166108fc479081150290604051600060405180830381858888f193505050501580156102d3573d6000803e3d6000fd5b50565b600047905090565b60008054906101000a900473ffffffffffffffffffffffffffffffffffffffff1681565b600081519050919050565b600081905092915050565b60005b8381101561033657808201518184015260208101905061031b565b60008484015250505050565b600061034d82610302565b610357818561030d565b9350610367818560208601610318565b80840191505092915050565b600061037f8284610342565b915081905092915050565b600082825260208201905092915050565b7f64656c656761746563616c6c206661696c656400000000000000000000000000600082015250565b60006103d160138361038a565b91506103dc8261039b565b602082019050919050565b60006020820190508181036000830152610400816103c4565b9050919050565b6000819050919050565b61041a81610407565b82525050565b60006020820190506104356000830184610411565b92915050565b600073ffffffffffffffffffffffffffffffffffffffff82169050919050565b60006104668261043b565b9050919050565b6104768161045b565b82525050565b6000602082019050610491600083018461046d565b92915050565b7f596f7520617265206e6f7420746865206f776e65720000000000000000000000600082015250565b60006104cd60158361038a565b91506104d882610497565b602082019050919050565b600060208201905081810360008301526104fc816104c0565b905091905056fea2646970667358221220683c5ab79c2d058d4c416c06bf524c68e878aca2a9041f15461bb8bc311d732d64736f6c63430008100033",
  "immutableReferences": {},
  "source": "// SPDX-License-Identifier: MIT\r\npragma solidity >=0.6.0 <0.9.0;\r\n\r\ncontract Mine {\r\n    address public owner;\r\n\r\n    constructor() {\r\n        owner = msg.sender;\r\n    }\r\n\r\n    function thisIsMine() public {\r\n        owner = msg.sender;\r\n    }\r\n}\r\n\r\ncontract Storage {\r\n    address public owner;\r\n    Mine mineContract;\r\n\r\n    constructor(address _mineAddress) payable {\r\n        mineContract = Mine(_mineAddress);\r\n        owner = msg.sender;\r\n    }\r\n\r\n    modifier onlyOwner() {\r\n        require(msg.sender == owner, \"You are not the owner\");\r\n        _;\r\n    }\r\n\r\n    function withdraw() public onlyOwner {\r\n        payable(owner).transfer(address(this).balance);\r\n    }\r\n\r\n    function balanceOf() public view returns (uint256) {\r\n        return address(this).balance;\r\n    }\r\n\r\n    fallback() external {\r\n        (bool result, bytes memory data) = address(mineContract).delegatecall(\r\n            abi.encodeWithSignature(\"thisIsMine()\")\r\n        );\r\n        require(result, \"delegatecall failed\");\r\n        data;\r\n    }\r\n\r\n    // receive() external payable {\r\n    //     (bool result, bytes memory data) = address(mineContract).delegatecall(\r\n    //         abi.encodeWithSignature(\"thisIsMine()\")\r\n    //     );\r\n    //     require(result, \"delegatecall failed\");\r\n    //     data;\r\n    // }\r\n    // fallback() external {\r\n\r\n    // }\r\n}\r\n",
  "sourcePath": "C:\\Users\\teu-intern\\Documents\\CloudSec\\src\\truffle\\contracts\\Storage.sol",
  "compiler": {
    "name": "solc",
    "version": "0.8.16+commit.07a7930e.Emscripten.clang"
  },
  "schemaVersion": "3.4.9",
  "updatedAt": "2022-08-30T08:18:10.907Z",
  "networkType": "ethereum",
  "devdoc": {
    "kind": "dev",
    "methods": {},
    "version": 1
  },
  "userdoc": {
    "kind": "user",
    "methods": {},
    "version": 1
  }
}