{
  "contractName": "Storage",
  "abi": [
    {
      "inputs": [
        {
          "internalType": "address",
          "name": "_mineAddress",
          "type": "address"
        }
      ],
      "stateMutability": "payable",
      "type": "constructor",
      "payable": true
    },
    {
      "anonymous": false,
      "inputs": [
        {
          "indexed": false,
          "internalType": "bool",
          "name": "result",
          "type": "bool"
        }
      ],
      "name": "Log",
      "type": "event"
    },
    {
      "stateMutability": "payable",
      "type": "fallback",
      "payable": true
    },
    {
      "inputs": [],
      "name": "owner",
      "outputs": [
        {
          "internalType": "address",
          "name": "",
          "type": "address"
        }
      ],
      "stateMutability": "view",
      "type": "function",
      "constant": true
    },
    {
      "inputs": [],
      "name": "withdraw",
      "outputs": [],
      "stateMutability": "nonpayable",
      "type": "function"
    },
    {
      "inputs": [],
      "name": "balanceOf",
      "outputs": [
        {
          "internalType": "uint256",
          "name": "",
          "type": "uint256"
        }
      ],
      "stateMutability": "view",
      "type": "function",
      "constant": true
    }
  ],
  "bytecode": "0x608060405260405161070b38038061070b8339818101604052810190610025919061010f565b80600160006101000a81548173ffffffffffffffffffffffffffffffffffffffff021916908373ffffffffffffffffffffffffffffffffffffffff160217905550336000806101000a81548173ffffffffffffffffffffffffffffffffffffffff021916908373ffffffffffffffffffffffffffffffffffffffff1602179055505061013c565b600080fd5b600073ffffffffffffffffffffffffffffffffffffffff82169050919050565b60006100dc826100b1565b9050919050565b6100ec816100d1565b81146100f757600080fd5b50565b600081519050610109816100e3565b92915050565b600060208284031215610125576101246100ac565b5b6000610133848285016100fa565b91505092915050565b6105c08061014b6000396000f3fe6080604052600436106100385760003560e01c80633ccfd60b146101c3578063722713f7146101da5780638da5cb5b1461020557610039565b5b600080600160009054906101000a900473ffffffffffffffffffffffffffffffffffffffff1673ffffffffffffffffffffffffffffffffffffffff166040516024016040516020818303038152906040527f44e05a96000000000000000000000000000000000000000000000000000000007bffffffffffffffffffffffffffffffffffffffffffffffffffffffff19166020820180517bffffffffffffffffffffffffffffffffffffffffffffffffffffffff838183161783525050505060405161010591906103c4565b600060405180830381855af49150503d8060008114610140576040519150601f19603f3d011682016040523d82523d6000602084013e610145565b606091505b50915091507f47f8c0417b311dcdb6348ff8ce66cad6024dedecfc28f969dd137de9c735012a8260405161017991906103f6565b60405180910390a1816101c1576040517f08c379a00000000000000000000000000000000000000000000000000000000081526004016101b89061046e565b60405180910390fd5b005b3480156101cf57600080fd5b506101d8610230565b005b3480156101e657600080fd5b506101ef610327565b6040516101fc91906104a7565b60405180910390f35b34801561021157600080fd5b5061021a61032f565b6040516102279190610503565b60405180910390f35b60008054906101000a900473ffffffffffffffffffffffffffffffffffffffff1673ffffffffffffffffffffffffffffffffffffffff163373ffffffffffffffffffffffffffffffffffffffff16146102be576040517f08c379a00000000000000000000000000000000000000000000000000000000081526004016102b59061056a565b60405180910390fd5b60008054906101000a900473ffffffffffffffffffffffffffffffffffffffff1673ffffffffffffffffffffffffffffffffffffffff166108fc479081150290604051600060405180830381858888f19350505050158015610324573d6000803e3d6000fd5b50565b600047905090565b60008054906101000a900473ffffffffffffffffffffffffffffffffffffffff1681565b600081519050919050565b600081905092915050565b60005b8381101561038757808201518184015260208101905061036c565b60008484015250505050565b600061039e82610353565b6103a8818561035e565b93506103b8818560208601610369565b80840191505092915050565b60006103d08284610393565b915081905092915050565b60008115159050919050565b6103f0816103db565b82525050565b600060208201905061040b60008301846103e7565b92915050565b600082825260208201905092915050565b7f64656c656761746563616c6c206661696c656400000000000000000000000000600082015250565b6000610458601383610411565b915061046382610422565b602082019050919050565b600060208201905081810360008301526104878161044b565b9050919050565b6000819050919050565b6104a18161048e565b82525050565b60006020820190506104bc6000830184610498565b92915050565b600073ffffffffffffffffffffffffffffffffffffffff82169050919050565b60006104ed826104c2565b9050919050565b6104fd816104e2565b82525050565b600060208201905061051860008301846104f4565b92915050565b7f596f7520617265206e6f7420746865206f776e65720000000000000000000000600082015250565b6000610554601583610411565b915061055f8261051e565b602082019050919050565b6000602082019050818103600083015261058381610547565b905091905056fea2646970667358221220df39ce47930b393d72f49e39288721ad948c9653e96801f391db2413584be8df64736f6c63430008100033",
  "immutableReferences": {},
  "source": "// SPDX-License-Identifier: MIT\r\npragma solidity >=0.6.0 <0.9.0;\r\n\r\ncontract Mine {\r\n    address public owner;\r\n\r\n    constructor() {\r\n        owner = msg.sender;\r\n    }\r\n\r\n    function thisIsMine() public {\r\n        owner = msg.sender;\r\n    }\r\n}\r\n\r\ncontract Storage {\r\n    address public owner;\r\n    Mine mineContract;\r\n    event Log(bool result);\r\n\r\n    constructor(address _mineAddress) payable {\r\n        mineContract = Mine(_mineAddress);\r\n        owner = msg.sender;\r\n    }\r\n\r\n    modifier onlyOwner() {\r\n        require(msg.sender == owner, \"You are not the owner\");\r\n        _;\r\n    }\r\n\r\n    function withdraw() public onlyOwner {\r\n        payable(owner).transfer(address(this).balance);\r\n    }\r\n\r\n    function balanceOf() public view returns (uint256) {\r\n        return address(this).balance;\r\n    }\r\n\r\n    fallback() external payable {\r\n        (bool result, bytes memory data) = address(mineContract).delegatecall(\r\n            abi.encodeWithSignature(\"thisIsMine()\")\r\n        );\r\n        emit Log(result);\r\n        require(result, \"delegatecall failed\");\r\n        data;\r\n    }\r\n}\r\n",
  "sourcePath": "D:\\Trend\\CloudSec\\src\\truffle\\contracts\\Storage.sol",
  "compiler": {
    "name": "solc",
    "version": "0.8.16+commit.07a7930e.Emscripten.clang"
  },
  "schemaVersion": "3.4.9",
  "updatedAt": "2022-08-30T18:53:38.065Z",
  "networkType": "ethereum",
  "devdoc": {
    "kind": "dev",
    "methods": {},
    "version": 1
  },
  "userdoc": {
    "kind": "user",
    "methods": {},
    "version": 1
  }
}