{
  "contractName": "Switch",
  "abi": [
    {
      "inputs": [],
      "stateMutability": "payable",
      "type": "constructor"
    },
    {
      "inputs": [],
      "name": "owner",
      "outputs": [
        {
          "internalType": "address",
          "name": "",
          "type": "address"
        }
      ],
      "stateMutability": "view",
      "type": "function"
    },
    {
      "inputs": [
        {
          "internalType": "address",
          "name": "_newOwner",
          "type": "address"
        }
      ],
      "name": "switchOwners",
      "outputs": [],
      "stateMutability": "nonpayable",
      "type": "function"
    },
    {
      "inputs": [],
      "name": "withdraw",
      "outputs": [],
      "stateMutability": "nonpayable",
      "type": "function"
    },
    {
      "inputs": [],
      "name": "getBalance",
      "outputs": [
        {
          "internalType": "uint256",
          "name": "",
          "type": "uint256"
        }
      ],
      "stateMutability": "view",
      "type": "function"
    }
  ],
  "bytecode": "0x6080604052336000806101000a81548173ffffffffffffffffffffffffffffffffffffffff021916908373ffffffffffffffffffffffffffffffffffffffff1602179055506103ee806100536000396000f3fe608060405234801561001057600080fd5b506004361061004c5760003560e01c806312065fe0146100515780633ccfd60b1461006f5780638da5cb5b14610079578063df824da114610097575b600080fd5b6100596100b3565b6040516100669190610266565b60405180910390f35b6100776100bb565b005b6100816101b2565b60405161008e91906102c2565b60405180910390f35b6100b160048036038101906100ac919061030e565b6101d6565b005b600047905090565b60008054906101000a900473ffffffffffffffffffffffffffffffffffffffff1673ffffffffffffffffffffffffffffffffffffffff163373ffffffffffffffffffffffffffffffffffffffff1614610149576040517f08c379a000000000000000000000000000000000000000000000000000000000815260040161014090610398565b60405180910390fd5b60008054906101000a900473ffffffffffffffffffffffffffffffffffffffff1673ffffffffffffffffffffffffffffffffffffffff166108fc479081150290604051600060405180830381858888f193505050501580156101af573d6000803e3d6000fd5b50565b60008054906101000a900473ffffffffffffffffffffffffffffffffffffffff1681565b3373ffffffffffffffffffffffffffffffffffffffff163273ffffffffffffffffffffffffffffffffffffffff161461024a57806000806101000a81548173ffffffffffffffffffffffffffffffffffffffff021916908373ffffffffffffffffffffffffffffffffffffffff1602179055505b50565b6000819050919050565b6102608161024d565b82525050565b600060208201905061027b6000830184610257565b92915050565b600073ffffffffffffffffffffffffffffffffffffffff82169050919050565b60006102ac82610281565b9050919050565b6102bc816102a1565b82525050565b60006020820190506102d760008301846102b3565b92915050565b600080fd5b6102eb816102a1565b81146102f657600080fd5b50565b600081359050610308816102e2565b92915050565b600060208284031215610324576103236102dd565b5b6000610332848285016102f9565b91505092915050565b600082825260208201905092915050565b7f596f7520617265206e6f7420746865206f776e65720000000000000000000000600082015250565b600061038260158361033b565b915061038d8261034c565b602082019050919050565b600060208201905081810360008301526103b181610375565b905091905056fea2646970667358221220c83123d32c5244dba24a23ba0aef6671d6bbfb5437e826b7bcd05d2fabc22c7364736f6c63430008100033",
  "immutableReferences": {},
  "source": "// SPDX-License-Identifier: MIT\r\npragma solidity >=0.6.0 <0.9.0; \r\ncontract Switch {\r\n \r\n    address public owner;\r\n \r\n    constructor() payable  {\r\n        owner = msg.sender;\r\n    }\r\n \r\n    modifier onlyOwner {\r\n            require(\r\n                msg.sender == owner,\r\n                \"You are not the owner\"\r\n                );\r\n                _;\r\n        }\r\n \r\n    function switchOwners(address _newOwner) public {\r\n        if (tx.origin != msg.sender) {\r\n        owner = _newOwner;\r\n        }\r\n    }\r\n \r\n \r\n    function withdraw() public  onlyOwner {\r\n        payable(owner).transfer(address(this).balance);\r\n \r\n    }\r\n \r\n    function getBalance() view public returns(uint) {\r\n        return address(this).balance;\r\n    }\r\n \r\n \r\n \r\n}\r\n",
  "sourcePath": "D:\\Trend\\CloudSec\\src\\truffle\\contracts\\Switch.sol",
  "compiler": {
    "name": "solc",
    "version": "0.8.16+commit.07a7930e.Emscripten.clang"
  },
  "schemaVersion": "3.4.9",
  "updatedAt": "2022-09-02T08:48:39.198Z",
  "devdoc": {
    "kind": "dev",
    "methods": {},
    "version": 1
  },
  "userdoc": {
    "kind": "user",
    "methods": {},
    "version": 1
  }
}