{
  "contractName": "Timezone",
  "abi": [
    {
      "inputs": [],
      "stateMutability": "nonpayable",
      "type": "constructor"
    },
    {
      "inputs": [],
      "name": "owner",
      "outputs": [
        {
          "internalType": "address",
          "name": "",
          "type": "address"
        }
      ],
      "stateMutability": "view",
      "type": "function"
    },
    {
      "inputs": [],
      "name": "tz1Library",
      "outputs": [
        {
          "internalType": "address",
          "name": "",
          "type": "address"
        }
      ],
      "stateMutability": "view",
      "type": "function"
    },
    {
      "inputs": [],
      "name": "tz2Library",
      "outputs": [
        {
          "internalType": "address",
          "name": "",
          "type": "address"
        }
      ],
      "stateMutability": "view",
      "type": "function"
    },
    {
      "inputs": [
        {
          "internalType": "uint256",
          "name": "_timeStamp",
          "type": "uint256"
        }
      ],
      "name": "setFirstTime",
      "outputs": [],
      "stateMutability": "nonpayable",
      "type": "function"
    },
    {
      "inputs": [
        {
          "internalType": "uint256",
          "name": "_timeStamp",
          "type": "uint256"
        }
      ],
      "name": "setSecondTime",
      "outputs": [],
      "stateMutability": "nonpayable",
      "type": "function"
    },
    {
      "inputs": [
        {
          "internalType": "uint256",
          "name": "_timeStamp",
          "type": "uint256"
        }
      ],
      "name": "setThirdTime",
      "outputs": [],
      "stateMutability": "nonpayable",
      "type": "function"
    }
  ],
  "bytecode": "0x608060405234801561001057600080fd5b5060405161001d90610128565b604051809103906000f080158015610039573d6000803e3d6000fd5b506000806101000a81548173ffffffffffffffffffffffffffffffffffffffff021916908373ffffffffffffffffffffffffffffffffffffffff16021790555060405161008590610128565b604051809103906000f0801580156100a1573d6000803e3d6000fd5b50600160006101000a81548173ffffffffffffffffffffffffffffffffffffffff021916908373ffffffffffffffffffffffffffffffffffffffff16021790555033600260006101000a81548173ffffffffffffffffffffffffffffffffffffffff021916908373ffffffffffffffffffffffffffffffffffffffff160217905550610135565b6101028061074d83390190565b610609806101446000396000f3fe608060405234801561001057600080fd5b50600436106100625760003560e01c80630883be79146100675780632f09f59a146100855780635bda8fa4146100a35780636e4cb8c5146100bf5780638da5cb5b146100db578063f1e02620146100f9575b600080fd5b61006f610115565b60405161007c919061042e565b60405180910390f35b61008d610139565b60405161009a919061042e565b60405180910390f35b6100bd60048036038101906100b89190610484565b61015f565b005b6100d960048036038101906100d49190610484565b61022d565b005b6100e36102fb565b6040516100f0919061042e565b60405180910390f35b610113600480360381019061010e9190610484565b610321565b005b60008054906101000a900473ffffffffffffffffffffffffffffffffffffffff1681565b600160009054906101000a900473ffffffffffffffffffffffffffffffffffffffff1681565b600160009054906101000a900473ffffffffffffffffffffffffffffffffffffffff1673ffffffffffffffffffffffffffffffffffffffff167f3beb26c427d03ceadbdaedc2f7aac4d9fc345b4fcbfc4b80654fee46dd7c349a826040516020016101cb92919061051f565b6040516020818303038152906040526040516101e791906105bc565b600060405180830381855af49150503d8060008114610222576040519150601f19603f3d011682016040523d82523d6000602084013e610227565b606091505b50505050565b600160009054906101000a900473ffffffffffffffffffffffffffffffffffffffff1673ffffffffffffffffffffffffffffffffffffffff167f3beb26c427d03ceadbdaedc2f7aac4d9fc345b4fcbfc4b80654fee46dd7c349a8260405160200161029992919061051f565b6040516020818303038152906040526040516102b591906105bc565b600060405180830381855af49150503d80600081146102f0576040519150601f19603f3d011682016040523d82523d6000602084013e6102f5565b606091505b50505050565b600260009054906101000a900473ffffffffffffffffffffffffffffffffffffffff1681565b60008054906101000a900473ffffffffffffffffffffffffffffffffffffffff1673ffffffffffffffffffffffffffffffffffffffff167f3beb26c427d03ceadbdaedc2f7aac4d9fc345b4fcbfc4b80654fee46dd7c349a8260405160200161038b92919061051f565b6040516020818303038152906040526040516103a791906105bc565b600060405180830381855af49150503d80600081146103e2576040519150601f19603f3d011682016040523d82523d6000602084013e6103e7565b606091505b50505050565b600073ffffffffffffffffffffffffffffffffffffffff82169050919050565b6000610418826103ed565b9050919050565b6104288161040d565b82525050565b6000602082019050610443600083018461041f565b92915050565b600080fd5b6000819050919050565b6104618161044e565b811461046c57600080fd5b50565b60008135905061047e81610458565b92915050565b60006020828403121561049a57610499610449565b5b60006104a88482850161046f565b91505092915050565b60007fffffffff0000000000000000000000000000000000000000000000000000000082169050919050565b6000819050919050565b6104f86104f3826104b1565b6104dd565b82525050565b6000819050919050565b6105196105148261044e565b6104fe565b82525050565b600061052b82856104e7565b60048201915061053b8284610508565b6020820191508190509392505050565b600081519050919050565b600081905092915050565b60005b8381101561057f578082015181840152602081019050610564565b60008484015250505050565b60006105968261054b565b6105a08185610556565b93506105b0818560208601610561565b80840191505092915050565b60006105c8828461058b565b91508190509291505056fea2646970667358221220500aafd416b3f609978b5acd34b59f14c8790deef4aac2d0a92d0fe52c329dea64736f6c63430008100033608060405234801561001057600080fd5b5060e38061001f6000396000f3fe6080604052348015600f57600080fd5b506004361060285760003560e01c80633beb26c414602d575b600080fd5b60436004803603810190603f91906085565b6045565b005b8060008190555050565b600080fd5b6000819050919050565b6065816054565b8114606f57600080fd5b50565b600081359050607f81605e565b92915050565b6000602082840312156098576097604f565b5b600060a4848285016072565b9150509291505056fea264697066735822122032ae78c737a2cd605feab57050b0c87999842fa59a1ff1143c23a446c0e806d564736f6c63430008100033",
  "immutableReferences": {},
  "source": "// SPDX-License-Identifier: MIT\r\npragma solidity >=0.6.0 <0.9.0; \r\n\r\n \r\ncontract Timezone {\r\n \r\n  // public library contracts\r\n  address public tz1Library; \r\n  address public tz2Library;     \r\n  address public owner; \r\n  uint storedTime; \r\n  // Sets the function signature for delegatecall\r\n  bytes4 constant setTimeSignature = bytes4(keccak256(\"setTime(uint256)\"));\r\n \r\n  constructor()  {\r\n    tz1Library = address(new LibraryContract());\r\n    tz2Library = address(new LibraryContract());\r\n    owner = msg.sender;\r\n  }\r\n \r\n  // set the time for timezone 1\r\n  function setFirstTime(uint _timeStamp) public {\r\n    tz1Library.delegatecall(abi.encodePacked(setTimeSignature, _timeStamp));\r\n  }\r\n \r\n  // set the time for timezone 2\r\n  function setSecondTime(uint _timeStamp) public {\r\n    tz2Library.delegatecall(abi.encodePacked(setTimeSignature, _timeStamp));\r\n  }\r\n\r\n // set the time for timezone 3\r\n  function setThirdTime(uint _timeStamp) public {\r\n    tz2Library.delegatecall(abi.encodePacked(setTimeSignature, _timeStamp));\r\n  }\r\n}\r\n\r\n// Simple library contract to set the time\r\ncontract LibraryContract {\r\n \r\n  // stores a timestamp\r\n  uint storedTime; \r\n \r\n  function setTime(uint _time) public {\r\n    storedTime = _time;\r\n  }\r\n}\r\n",
  "sourcePath": "C:\\Users\\teu-intern\\Documents\\CloudSec\\src\\truffle\\contracts\\Timezone.sol",
  "compiler": {
    "name": "solc",
    "version": "0.8.16+commit.07a7930e.Emscripten.clang"
  },
  "schemaVersion": "3.4.9",
  "updatedAt": "2022-08-30T08:16:34.488Z",
  "devdoc": {
    "kind": "dev",
    "methods": {},
    "version": 1
  },
  "userdoc": {
    "kind": "user",
    "methods": {},
    "version": 1
  }
}