{
  "contractName": "underspending",
  "abi": [
    {
      "inputs": [],
      "stateMutability": "nonpayable",
      "type": "constructor"
    },
    {
      "inputs": [],
      "name": "playerAllowance",
      "outputs": [
        {
          "internalType": "uint256",
          "name": "",
          "type": "uint256"
        }
      ],
      "stateMutability": "view",
      "type": "function",
      "constant": true
    },
    {
      "inputs": [
        {
          "internalType": "uint256",
          "name": "_amountToExchange",
          "type": "uint256"
        }
      ],
      "name": "exchange",
      "outputs": [
        {
          "internalType": "bool",
          "name": "",
          "type": "bool"
        }
      ],
      "stateMutability": "nonpayable",
      "type": "function"
    },
    {
      "inputs": [
        {
          "internalType": "address",
          "name": "_owner",
          "type": "address"
        }
      ],
      "name": "checkBalanceOf",
      "outputs": [
        {
          "internalType": "uint256",
          "name": "balance",
          "type": "uint256"
        }
      ],
      "stateMutability": "view",
      "type": "function",
      "constant": true
    }
  ],
  "bytecode": "0x60806040526002805534801561001457600080fd5b50606460018190556000803373ffffffffffffffffffffffffffffffffffffffff1673ffffffffffffffffffffffffffffffffffffffff168152602001908152602001600020819055506104a48061006d6000396000f3fe608060405234801561001057600080fd5b50600436106100415760003560e01c806303147f3914610046578063535565591461007657806391bf4b0c146100a6575b600080fd5b610060600480360381019061005b919061028d565b6100c4565b60405161006d91906102d3565b60405180910390f35b610090600480360381019061008b919061031a565b61010c565b60405161009d9190610362565b60405180910390f35b6100ae610224565b6040516100bb91906102d3565b60405180910390f35b60008060008373ffffffffffffffffffffffffffffffffffffffff1673ffffffffffffffffffffffffffffffffffffffff168152602001908152602001600020549050919050565b600080826000803373ffffffffffffffffffffffffffffffffffffffff1673ffffffffffffffffffffffffffffffffffffffff1681526020019081526020016000205461015991906103ac565b101561016457600080fd5b816000803373ffffffffffffffffffffffffffffffffffffffff1673ffffffffffffffffffffffffffffffffffffffff16815260200190815260200160002060008282546101b291906103ac565b92505081905550600254826101c791906103e0565b6000803373ffffffffffffffffffffffffffffffffffffffff1673ffffffffffffffffffffffffffffffffffffffff1681526020019081526020016000206000828254610214919061043a565b9250508190555060019050919050565b60015481565b600080fd5b600073ffffffffffffffffffffffffffffffffffffffff82169050919050565b600061025a8261022f565b9050919050565b61026a8161024f565b811461027557600080fd5b50565b60008135905061028781610261565b92915050565b6000602082840312156102a3576102a261022a565b5b60006102b184828501610278565b91505092915050565b6000819050919050565b6102cd816102ba565b82525050565b60006020820190506102e860008301846102c4565b92915050565b6102f7816102ba565b811461030257600080fd5b50565b600081359050610314816102ee565b92915050565b6000602082840312156103305761032f61022a565b5b600061033e84828501610305565b91505092915050565b60008115159050919050565b61035c81610347565b82525050565b60006020820190506103776000830184610353565b92915050565b7f4e487b7100000000000000000000000000000000000000000000000000000000600052601160045260246000fd5b60006103b7826102ba565b91506103c2836102ba565b92508282039050818111156103da576103d961037d565b5b92915050565b60006103eb826102ba565b91506103f6836102ba565b9250817fffffffffffffffffffffffffffffffffffffffffffffffffffffffffffffffff048311821515161561042f5761042e61037d565b5b828202905092915050565b6000610445826102ba565b9150610450836102ba565b92508282019050808211156104685761046761037d565b5b9291505056fea26469706673582212201b2461859bb267779ab9ad845fa8cb9231d5290bc0695c43e1e7e4ec99e1589f64736f6c63430008100033",
  "immutableReferences": {},
  "source": "// SPDX-License-Identifier: MIT\r\npragma solidity >=0.6.0 <0.9.0; \r\n\r\n\r\n\r\ncontract underspending {\r\n\r\n  mapping(address => uint) balances;\r\n  uint256 public playerAllowance;\r\n  uint256 coinExchangeValue = 2;\r\n  \r\n  constructor()  {\r\n    balances[msg.sender] = playerAllowance = 100;\r\n  }\r\n  \r\n  function exchange(uint _amountToExchange) public returns (bool) {\r\n    require(balances[msg.sender] - _amountToExchange >= 0);\r\n\r\n    balances[msg.sender] -= _amountToExchange;\r\n    balances[msg.sender] += (_amountToExchange * coinExchangeValue);\r\n\r\n    return true;\r\n  }\r\n  \r\n  function checkBalanceOf(address _owner) public view returns (uint balance) {\r\n    return balances[_owner];\r\n  }\r\n}\r\n",
  "sourcePath": "D:\\Trend\\CloudSec\\src\\truffle\\contracts\\Underspending.sol",
  "compiler": {
    "name": "solc",
    "version": "0.8.16+commit.07a7930e.Emscripten.clang"
  },
  "schemaVersion": "3.4.9",
  "updatedAt": "2022-08-30T18:53:48.491Z",
  "networkType": "ethereum",
  "devdoc": {
    "kind": "dev",
    "methods": {},
    "version": 1
  },
  "userdoc": {
    "kind": "user",
    "methods": {},
    "version": 1
  }
}