{
  "contractName": "VehicleRegister",
  "abi": [
    {
      "inputs": [],
      "name": "newReg",
      "outputs": [
        {
          "internalType": "bool",
          "name": "",
          "type": "bool"
        }
      ],
      "stateMutability": "view",
      "type": "function",
      "constant": true
    },
    {
      "inputs": [
        {
          "internalType": "uint256",
          "name": "_plateNum",
          "type": "uint256"
        },
        {
          "internalType": "string",
          "name": "_ownerName",
          "type": "string"
        }
      ],
      "name": "regNewVehicle",
      "outputs": [],
      "stateMutability": "nonpayable",
      "type": "function"
    },
    {
      "inputs": [
        {
          "internalType": "uint256",
          "name": "_plateNum",
          "type": "uint256"
        }
      ],
      "name": "getregTag",
      "outputs": [
        {
          "internalType": "bytes32",
          "name": "",
          "type": "bytes32"
        }
      ],
      "stateMutability": "view",
      "type": "function",
      "constant": true
    },
    {
      "inputs": [
        {
          "internalType": "bytes32",
          "name": "_regTag",
          "type": "bytes32"
        },
        {
          "internalType": "string",
          "name": "_licenseNum",
          "type": "string"
        }
      ],
      "name": "getID",
      "outputs": [
        {
          "internalType": "bytes32",
          "name": "",
          "type": "bytes32"
        }
      ],
      "stateMutability": "nonpayable",
      "type": "function"
    },
    {
      "inputs": [
        {
          "internalType": "bytes32",
          "name": "_regTag",
          "type": "bytes32"
        }
      ],
      "name": "regTagCheck",
      "outputs": [
        {
          "internalType": "bool",
          "name": "",
          "type": "bool"
        }
      ],
      "stateMutability": "view",
      "type": "function",
      "constant": true
    }
  ],
  "bytecode": "0x608060405260008060006101000a81548160ff02191690831515021790555034801561002a57600080fd5b50610bd78061003a6000396000f3fe608060405234801561001057600080fd5b50600436106100565760003560e01c8062561da11461005b578063544e55a51461008b5780636173752e146100bb5780638ad21d2d146100eb578063b704844814610107575b600080fd5b6100756004803603810190610070919061040f565b610125565b6040516100829190610455565b60405180910390f35b6100a560048036038101906100a091906105e2565b61017f565b6040516100b29190610455565b60405180910390f35b6100d560048036038101906100d0919061063e565b61025e565b6040516100e29190610686565b60405180910390f35b610105600480360381019061010091906106a1565b610288565b005b61010f610373565b60405161011c9190610686565b60405180910390f35b6000600260006001600085815260200190815260200160002054815260200190815260200160002060009054906101000a900460ff1661016457600080fd5b60016000838152602001908152602001600020549050919050565b6000610189610384565b838160000181815250508281602001819052506002600085815260200190815260200160002060009054906101000a900460ff166101ee576040516020016101d09061075a565b60405160208183030381529060405280519060200120915050610258565b600084846040516020016102039291906107e8565b604051602081830303815290604052805190602001209050816003600083815260200190815260200160002060008201518160000155602082015181600101908161024e9190610a24565b5090505080925050505b92915050565b60006002600083815260200190815260200160002060009054906101000a900460ff169050919050565b60008054906101000a900460ff166102d5576040517f08c379a00000000000000000000000000000000000000000000000000000000081526004016102cc90610b42565b60405180910390fd5b6102dd6103a1565b818160200181905250828160000181815250508282604051602001610303929190610b71565b60405160208183030381529060405280519060200120816040018181525050806040015160016000858152602001908152602001600020819055506001600260008360400151815260200190815260200160002060006101000a81548160ff021916908315150217905550505050565b60008054906101000a900460ff1681565b604051806040016040528060008019168152602001606081525090565b60405180606001604052806000815260200160608152602001600080191681525090565b6000604051905090565b600080fd5b600080fd5b6000819050919050565b6103ec816103d9565b81146103f757600080fd5b50565b600081359050610409816103e3565b92915050565b600060208284031215610425576104246103cf565b5b6000610433848285016103fa565b91505092915050565b6000819050919050565b61044f8161043c565b82525050565b600060208201905061046a6000830184610446565b92915050565b6104798161043c565b811461048457600080fd5b50565b60008135905061049681610470565b92915050565b600080fd5b600080fd5b6000601f19601f8301169050919050565b7f4e487b7100000000000000000000000000000000000000000000000000000000600052604160045260246000fd5b6104ef826104a6565b810181811067ffffffffffffffff8211171561050e5761050d6104b7565b5b80604052505050565b60006105216103c5565b905061052d82826104e6565b919050565b600067ffffffffffffffff82111561054d5761054c6104b7565b5b610556826104a6565b9050602081019050919050565b82818337600083830152505050565b600061058561058084610532565b610517565b9050828152602081018484840111156105a1576105a06104a1565b5b6105ac848285610563565b509392505050565b600082601f8301126105c9576105c861049c565b5b81356105d9848260208601610572565b91505092915050565b600080604083850312156105f9576105f86103cf565b5b600061060785828601610487565b925050602083013567ffffffffffffffff811115610628576106276103d4565b5b610634858286016105b4565b9150509250929050565b600060208284031215610654576106536103cf565b5b600061066284828501610487565b91505092915050565b60008115159050919050565b6106808161066b565b82525050565b600060208201905061069b6000830184610677565b92915050565b600080604083850312156106b8576106b76103cf565b5b60006106c6858286016103fa565b925050602083013567ffffffffffffffff8111156106e7576106e66103d4565b5b6106f3858286016105b4565b9150509250929050565b600082825260208201905092915050565b7f3030303000000000000000000000000000000000000000000000000000000000600082015250565b60006107446004836106fd565b915061074f8261070e565b602082019050919050565b6000602082019050818103600083015261077381610737565b9050919050565b600081519050919050565b60005b838110156107a3578082015181840152602081019050610788565b60008484015250505050565b60006107ba8261077a565b6107c481856106fd565b93506107d4818560208601610785565b6107dd816104a6565b840191505092915050565b60006040820190506107fd6000830185610446565b818103602083015261080f81846107af565b90509392505050565b7f4e487b7100000000000000000000000000000000000000000000000000000000600052602260045260246000fd5b6000600282049050600182168061085f57607f821691505b60208210810361087257610871610818565b5b50919050565b60008190508160005260206000209050919050565b60006020601f8301049050919050565b600082821b905092915050565b6000600883026108da7fffffffffffffffffffffffffffffffffffffffffffffffffffffffffffffffff8261089d565b6108e4868361089d565b95508019841693508086168417925050509392505050565b6000819050919050565b600061092161091c610917846103d9565b6108fc565b6103d9565b9050919050565b6000819050919050565b61093b83610906565b61094f61094782610928565b8484546108aa565b825550505050565b600090565b610964610957565b61096f818484610932565b505050565b5b818110156109935761098860008261095c565b600181019050610975565b5050565b601f8211156109d8576109a981610878565b6109b28461088d565b810160208510156109c1578190505b6109d56109cd8561088d565b830182610974565b50505b505050565b600082821c905092915050565b60006109fb600019846008026109dd565b1980831691505092915050565b6000610a1483836109ea565b9150826002028217905092915050565b610a2d8261077a565b67ffffffffffffffff811115610a4657610a456104b7565b5b610a508254610847565b610a5b828285610997565b600060209050601f831160018114610a8e5760008415610a7c578287015190505b610a868582610a08565b865550610aee565b601f198416610a9c86610878565b60005b82811015610ac457848901518255600182019150602085019450602081019050610a9f565b86831015610ae15784890151610add601f8916826109ea565b8355505b6001600288020188555050505b505050505050565b7f536f7272792c20726567697374726174696f6e20697320636c6f736564000000600082015250565b6000610b2c601d836106fd565b9150610b3782610af6565b602082019050919050565b60006020820190508181036000830152610b5b81610b1f565b9050919050565b610b6b816103d9565b82525050565b6000604082019050610b866000830185610b62565b8181036020830152610b9881846107af565b9050939250505056fea26469706673582212202e5255ccfd8bd92b409785dfea65a307c8ed13efc46dc42b80598cf129f848ab64736f6c63430008100033",
  "immutableReferences": {},
  "source": "// SPDX-License-Identifier: MIT\r\npragma solidity >=0.6.0 <0.9.0; \r\n\r\n\r\ncontract VehicleRegister {\r\n    bool public newReg = false;\r\n\r\n    struct Record{\r\n        uint256 plateNum;\r\n        string ownerName;\r\n        bytes32 regTag;\r\n    }\r\n\r\n    struct UniqueTag{\r\n        bytes32 regTag;\r\n        string licenseNum;\r\n    }\r\n\r\n    mapping(uint256 => bytes32) private regTagRecord;\r\n    mapping(bytes32 => bool) private regTagRecordExists;\r\n    mapping(bytes32 => UniqueTag) private uniqueIDRecord;\r\n\r\n    function regNewVehicle(uint256 _plateNum, string memory _ownerName) public {\r\n        require(newReg, \"Sorry, registration is closed\");\r\n        Record memory record; \r\n        record.ownerName = _ownerName;\r\n        record.plateNum = _plateNum;\r\n        record.regTag = keccak256(abi.encode(_plateNum,_ownerName));\r\n        regTagRecord[_plateNum]=record.regTag;\r\n        regTagRecordExists[record.regTag] = true;\r\n    }\r\n\r\n    function getregTag(uint256 _plateNum) public view returns (bytes32){        \r\n     require(regTagRecordExists[regTagRecord [_plateNum]]);\r\n        return regTagRecord[_plateNum];\r\n    }\r\n\r\n    function getID(bytes32 _regTag, string  memory _licenseNum)public returns (bytes32){\r\n        UniqueTag memory instance;\r\n        instance.regTag = _regTag;\r\n        instance.licenseNum =_licenseNum;\r\n        if (!regTagRecordExists[_regTag]){\r\n            return keccak256(abi.encode(\"0000\"));\r\n        }\r\n        bytes32 _uniqueID = keccak256(abi.encode(_regTag,_licenseNum));\r\n        uniqueIDRecord[_uniqueID]=instance;\r\n        return _uniqueID;\r\n    }\r\n\r\n    function regTagCheck(bytes32 _regTag) public view returns (bool){\r\n        return regTagRecordExists[_regTag];\r\n    }\r\n}\r\n",
  "sourcePath": "D:\\Trend\\CloudSec\\src\\truffle\\contracts\\VehicleRegister.sol",
  "compiler": {
    "name": "solc",
    "version": "0.8.16+commit.07a7930e.Emscripten.clang"
  },
  "schemaVersion": "3.4.9",
  "updatedAt": "2022-08-30T18:53:49.952Z",
  "networkType": "ethereum",
  "devdoc": {
    "kind": "dev",
    "methods": {},
    "version": 1
  },
  "userdoc": {
    "kind": "user",
    "methods": {},
    "version": 1
  }
}